:020000040800F2
:1000000038E90220A5020008AD020008AF0200088E
:10001000B1020008B3020008B502000800000000A9
:10002000000000000000000000000000E9010008DE
:10003000B9020008000000003D0200080960000845
:10004000BF020008BF020008BF020008BF0200088C
:10005000BF020008BF020008BF020008BF0200087C
:10006000BF020008BF020008BF020008BF0200086C
:10007000BF020008BF020008BF020008BF0200085C
:1000800085140008BF020008BF020008BF02000874
:10009000BF020008BF020008BF020008BF0200083C
:1000A000BF020008BF020008BF020008BF0200082C
:1000B000BF020008BF020008BF020008BF0200081C
:1000C000BF020008BF020008BF020008BF0200080C
:1000D000BF020008F9670008BF020008BF0200085D
:1000E000BF020008BF020008BF020008BF020008EC
:1000F000BF020008BF020008BF020008BF020008DC
:10010000BF020008BF020008BF020008BF020008CB
:10011000BF020008BF020008BF020008BF020008BB
:10012000B9150008BF020008BF020008BF0200089E
:10013000C5150008BF020008BF020008BF02000882
:10014000BF020008BF020008BF020008BF0200088B
:10015000BF020008BF020008BF020008BF0200087B
:10016000BF020008BF020008BF020008BF0200086B
:10017000BF020008BF020008BF0200080000000024
:10018000BF020008BF020008BF020008BF0200084B
:10019000BF020008BF020008BF020008BF0200083B
:1001A000115A0008BF02000891140008BF0200089D
:1001B000BF020008BF020008BF020008BF0200081B
:1001C000BF020008BF020008DFF818D000F08AF96B
:1001D00000F002F9004800475D5A0108AFF30080C3
:1001E00000F05FF938E902202B4B19680868B0E885
:1001F000F04F80F30988BFF36F8F4FF0000080F35A
:10020000118870470000000006480068006880F30D
:10021000088862B661B6BFF34F8FBFF36F8F00DF00
:1002200000BF00BF08ED00E0DFF80C00016841F4FA
:1002300070010160704700BF88ED00E0EFF30980B6
:10024000BFF36F8F144B1A681EF0100F08BF20ED1C
:10025000108A20E9F04F106008B44FF4A07072B615
:1002600080F31188BFF34F8FBFF36F8F62B616F024
:100270000FFD4FF0000080F3118808BC1968086872
:10028000B0E8F04F1EF0100F08BFB0EC108A80F3FA
:100290000988BFF36F8F70472C000020EFF30580B3
:1002A000704700000648804706480047FEE7FEE723
:1002B000FEE7FEE7FEE7FEE7FEE7FEE7FEE7FEE716
:1002C00025600008C90100082DE9F04117460E46D7
:1002D000054633B107FB0354E41B2046B047A54253
:1002E000FAD1A5F10800BDE8F08140EA01039B07BF
:1002F00003D009E008C9121F08C0042AFAD203E09B
:1003000011F8013B00F8013B521EF9D27047D2B2FE
:1003100001E000F8012B491EFBD270470022F6E7EE
:1003200010B513460A4604461946FFF7F0FF20466B
:1003300010BD10B5044604E00B7800F8013B03B192
:10034000491C521EF8D2204610BD421C10F8011B59
:100350000029FBD1801A704710B5002200E0521C22
:10036000835C8C5CA34201D1002BF8D1D8B2E1B2FE
:10037000401A10BD30B504460020034600E05B1C67
:10038000934203D2E05CCD5C401BF8D030BD034605
:1003900011F8012B00F8012B002AF9D118467047FB
:1003A00030B505460020034600E05B1C934205D2B1
:1003B000EC5CC85C201A01D1002CF6D130BD70B5C0
:1003C000064615F069F8046805460A220021304601
:1003D00000F029F82C6070BD70B5054C054D03E0A8
:1003E000206820448047241DAC42F9D170BD000034
:1003F0007CC301088CC301082DE9F041074615466E
:100400000E46102015F0E4FC04000AD06760C4E931
:10041000026500F041F80168216004600020BDE839
:10042000F0810120FBE72DE9F04791460F46804619
:100430000446002614F8015B2DB100F065F8006851
:10044000405DC007F6D12B2D02D02D2D18D0641E93
:100450004A463946204600F05BF827B13968A14288
:1004600001D1C7F8008071054FF002040BD540425E
:10047000002803DD15F010F80460A007BDE8F08740
:1004800046F48066E4E70028F8DA15F005F8046021
:100490006FF00040F2E7000000487047C001002004
:1004A00070472DE9F0410646FFF7F6FF80464546C6
:1004B00013E016B1E068B0420ED120682860D4E99C
:1004C0000101D8F800708847204615F0F9F8D8F8EF
:1004D0000000B842EBD100E025462C68002CE8D1A2
:1004E000BDE8F081064C074D06E0E06840F00103EE
:1004F00094E8070098471034AC42F6D3FFF768FE43
:1005000084BF0108A4BF010800487047089801088B
:100510002DE9F05F82460078002715468B460AF1E8
:100520000104B946302801D09DB113E014F8010B45
:100530000127782803D0582801D045B10AE00DB131
:10054000102D07D10027102514F8010B02E0082513
:1005500000E00A250026B0460EE005FB080005FB7A
:1005600006F1012701EB10461FFA80F8B6F5803F2F
:1005700000D3B94614F8010B294600F019F80028F9
:10058000EBDABBF1000F05D00FB1641E00E054465A
:10059000CBF80040B9F1000F06D014F07DFF022126
:1005A0000160C81EBDE8F09F48EA0640FAE77047C0
:1005B0003A2800D2303820F02002412A01D3A2F19B
:1005C0003700884201D34FF0FF30704770B58C1868
:1005D00010F8015B15F0070301D110F8013B2A1157
:1005E00006D110F8012B03E010F8016B01F8016B44
:1005F0005B1EF9D12B0705D40023521E0DD401F840
:10060000013BFAE710F8013BCB1A921C03E013F808
:10061000015B01F8015B521EF9D5A142D8D300203D
:1006200070BD08B569464FF6FF72ADF800200FF0B7
:10063000A9FC08BD10B50246806B016C11F0500F8B
:1006400005D0806BC16C1046BDE810400847016CB6
:1006500041F40071016401688A6812F0405F04BFD0
:100660008269002A17D1CA6A12F4700F1CBF8A6807
:1006700012F4806F0FD14A6822F020024A60016CA8
:1006800021F480710164016C11F4805F03D1016C6D
:1006900041F00101016401F009FA10BD10B5806B51
:1006A00040210164416C41F00401416401F026FAEB
:1006B00010BD10B5806B01F00DFA10BD06484FF06B
:1006C000080CC02305224FF48031C0F800C04361FC
:1006D000C261C16203F04CBA282A0020094810B553
:1006E0000068816941F0010181610122064811031E
:1006F00002F07AFB01220548BDE81040082102F013
:1007000073BB0000AC2A00200020024000280240F9
:100710000548006800EB800101EBC000034901EBD4
:100720008000006E7047000098000020AC2A002076
:100730000548006800EB800101EBC000034901EBB4
:100740008000406E7047000098000020AC2A002016
:100750002DE9F041204C2820092140F21B1604F11C
:10076000140840F21525352240F21D1C0B2340F2DF
:10077000352788E8EF1000212046FFF79FFF4FF450
:10078000F07121664FF488726266002084F83400AC
:1007900084F8350084F836006060A0600F49E0609E
:1007A00021602061204602F0ADFD18B900212046ED
:1007B00000F01AF8084802F0A9FD012208481103C8
:1007C00002F012FB07480122082102F00DFB00F0A5
:1007D00085FB0020BDE8F081AC2A002000680140C4
:1007E00000200240002802404648F0B5016887B06A
:1007F00041F080610160006800F08060059042482F
:10080000016841F400010160016801F400010591F3
:10081000016841F010010160016801F010010591CB
:10082000016841F040010160016801F0400105915B
:10083000016841F480710160016801F480710591E3
:10084000016841F400710160016801F400710591D3
:10085000016841F480610160016801F480610591E3
:10086000016841F480710160016801F480710591B3
:10087000016841F48061016000680224002100F4F5
:10088000806005901020CDE90004CDE902141F48D6
:100890000E256946049502F077F9E60269460920BB
:1008A00004901B48CDE9006402F06EF9194F4FF433
:1008B0006740CDE9000469463846049502F064F9C2
:1008C0004EF6FF706946CDE900041348049502F026
:1008D0005BF90495F720114D6946CDE900042846DF
:1008E00002F052F9012469463846CDE9006402F06D
:1008F0004BF908206946CDE90004284602F044F986
:1009000007B0F0BD443802403038024000100240C9
:10091000001802400020024000240240002802404B
:10092000002818BF704730B5104987B00E4D0868D1
:1009300040F480700860086801210D4C032200F427
:10094000807005902068CDE90001CDE9021269466A
:10095000284602F019F92088002281B2284602F0C8
:1009600043FA07B030BD000000200240303802409A
:100970000C8E0108002818BF704703480022034965
:10098000098889B202F030BA002002400C8E0108BA
:10099000002818BF7047034801220349098889B21B
:1009A00002F022BA002002400C8E0108002818BF75
:1009B000704703480349098889B202F011BA000060
:1009C000002002400C8E01080949084810B5086053
:1009D000084602F036FF00281CBF012010BD002190
:1009E000034800F0FFF8002010BD0000001000A038
:1009F000EC2C002030B591B000204FF480754FF002
:100A000040720B9069010391EB240094CDE9080238
:100A10004FF4406CCDF81CC00C900A230D900EAA28
:100A20000F9069460E900548CDE9053502F08EFF1E
:100A3000002818BF012011B030BD0000EC2C0020B0
:100A400010B54FF480744FF0200C8EB00021A2003E
:100A5000D3000393CDE907210991CDE905140B914A
:100A6000CDE900C00C480C910D9105F097FA78B9CA
:100A7000094841F28832694602F09AFE40B90648B8
:100A80004FF4487105F012F9002804BF0EB010BDF4
:100A900001200EB010BD0000EC2C00204FF480515E
:100AA0004FF0807C0B110A010261C0E900C1C0E96E
:100AB00002130020704700002DE9F041484D90B02E
:100AC00046482860284602F0BCFED8B900212846D6
:100AD00000F0C0F84FF08078002498FAA8F00127C1
:100AE0006F60B0FA80F14A1E2A613E021021C5E90A
:100AF0000564EC6104202C62C5E90201284602F07D
:100B0000BFFE18B110B00120BDE8F081344D662061
:100B1000CDE90664009041F288320894694628467F
:100B2000099405940B940C940D9402F041FE002856
:100B30004FD1992041F2883269460090284602F050
:100B400037FE002845D141F28831284605F0AEF83D
:100B500000283ED185200090CDE90664CDE9084803
:100B6000059441F28832CDE90A74694628460C940E
:100B70000D9402F01DFE60BB0EA941F2883228469A
:100B800002F02DFF28BB284605F008FA08BBF0212B
:100B90008120009091FAA1F29DF838100A20B2FA53
:100BA00082F221F0F0019040084341F28832694618
:100BB0008DF83800284602F0FBFD50B90EA941F22D
:100BC0008832284602F072FF002804BF10B0BDE84A
:100BD000F081042010B0BDE8F0810000001000A0FA
:100BE000EC2C00205C2010B502F0A0FC144C40213D
:100BF000204601F00FFF0421204601F00BFFE11415
:100C0000104C204601F006FFA114204601F002FF1F
:100C10000D48042101F0FEFE4FF40051204601F082
:100C2000F9FE0A480A49026842F0020202600268BC
:100C300022F002020260086820F00200086010BD85
:100C400000040240000C024000100240183802402C
:100C500038380240404870B586B0016841F0020162
:100C60000160006800F0020005903C48016841F016
:100C700002010160016821F0020101603848016849
:100C800041F002010160016801F002010591016873
:100C900041F002010160016801F002010591016863
:100CA00041F008010160016801F008010591016847
:100CB00041F008010160016801F008010591016837
:100CC00041F010010160016801F010010591016817
:100CD00041F0080101600068022101224FF00A0C76
:100CE00000F00800059040201E4E03238DE80F10F1
:100CF0006946304601F048FF00206946042500950A
:100D0000092404940290304601F03EFF164E68021A
:100D1000694604940090304601F036FFA802694607
:100D200004940090304601F02FFF1048694600956A
:100D3000049401F029FFE8026946049400903046CB
:100D400001F022FF00220F215C2002F007FC5C2052
:100D500002F0F8FB06B070BD383802401838024087
:100D60003038024000040240000C024000100240F3
:100D70002DE9F0418EB00B46002104464FF4406649
:100D80004FF00A0C4FF400550395B0030796CDE9D8
:100D90000A214FF480780C91CDE90810EB270D91D2
:100DA000CDE900730B4841F28832CDE905C86946A8
:100DB00002F0FEFC50B9074841F28832214602F0A9
:100DC0000EFE002804BF0EB0BDE8F08101200EB079
:100DD000BDE8F081EC2C00202DE9F74FB1F1FF3F89
:100DE0004FF00000A8B018BFB1F1004F6CD201F570
:100DF00080734FEAE37C03EB1C631B12002BC8BF1C
:100E00001802451A954264D84FF440634FF0120C13
:100E10000026CDF868C08F1821939A030C464FF432
:100E200080784FF001094FF400501D90CDE9226207
:100E3000CDE91F684FF0807A4FF0100B259626966B
:100E40002796254824951B9405F0A8F838BB22481E
:100E50001AA941F2883202F0ABFC00BB1E4841F2F5
:100E60008832289902F022FEC8B9CDE91286052100
:100E70000C91CDE9146A4FF480011196179602AADD
:100E8000CDE90269CDE9066118960CA9199641F2DF
:100E900088331148CDE904B902F032FC18B12BB007
:100EA0000120BDE8F08F28982C442844289004F5B0
:100EB0008070B8428CBF3D1B4FF48075BC42C0D3DC
:100EC0002BB00020BDE8F08F00F580708842FBD980
:100ED00097E7154698E70000EC2C00201C480222FA
:100EE00070B500F134014FF0070C184D0423056074
:100EF0000024C1E9002CC1E9023C0A614FF0100C4A
:100F00004A61D6018A619102C0F810C04025446050
:100F10004A00C0E90243C0E90741C0E909240021B1
:100F2000C0E9055600F062F80A49A1F1340003F067
:100F300035FD094D00281ABF012028702C7040F2A1
:100F4000036000F00BF8287870BD0000400100A09D
:100F5000642C0020982C00209C0000202DE9F843F0
:100F6000214C1026002780460125009721464FF688
:100F7000FF72C4E90056C4E90257A1F1500003F022
:100F800041FD012001F03AFD02202146C4E900069E
:100F9000C4E90257A1F150004FF6FF7203F032FD91
:100FA00003214FF6FF72C4E9001608202146C4E968
:100FB0000207A1F1500003F025FD4FF408700090E6
:100FC00004214FF6FF72C4E90250C4E9001621461D
:100FD000A1F1500003F016FDA4F150004146BDE818
:100FE000F84303F0FDBC0000B42C0020F0B504462B
:100FF0004E4887B0016841F00101016000684C492A
:1010000000F001000590086840F48000086008685E
:1010100000F480000590086840F00400086008684B
:1010200000F004000590086840F0080008600868B7
:1010300000F008000590086840F01000086008689B
:1010400000F010000590086840F020000860086873
:1010500000F020000590086840F040000860086833
:1010600000F040000590086840F0800008600868C3
:1010700001210C2200F0800005900220CDE9010141
:1010800008230093CDE903022A48694601F07CFD5C
:101090004CF2037000902848694601F075FD4FF648
:1010A000837000902548694601F06EFD4FF63F00C1
:1010B00000902348694601F067FD48F23310009024
:1010C0002048694601F060FD282000901E486946CE
:1010D00001F05AFD80271D490022BD004FF4003C5D
:1010E000EB004A606E00C1E90275C1E90463980033
:1010F000C1F820C00325164BC1E906020846C1E924
:101100000925CA620B600A6321638C6301F030FA1F
:101110000E4801F063FB00220F21382002F01EFA76
:10112000382002F00FFA07B0F0BD00003838024056
:101130003038024000080240000C0240001002401B
:101140000014024000180240001C0240A42B0020A2
:10115000106402402DE9F04F91B06A4D0646002020
:101160000190044602900390A86801696878884756
:101170000028307018BF002400F0BE807CD9DFF852
:1011800088B10DF110090DF11C0A0DA90AA801EB97
:10119000440200EB4401A86890460F464369687812
:1011A00098472878012806D1398829F81410B8F80A
:1011B00000102AF8141010F0020F04D03988C1F57D
:1011C000805129F8141010F0040F05D0B8F8001061
:1011D000C1F580512AF8141010F0080F06D0388895
:1011E0002AF81400B8F8000029F814005BF824105D
:1011F00039F8140088428CBF411A091A434A0AEB95
:1012000044071FFA81FC52F82430398899428CBF78
:10121000CB1A5B1A9BB26344052B84BF4BF82400A6
:1012200042F8241095F801C0BCF1700F31D05BF882
:10123000243006EB4400698803FB01F1090B41806F
:1012400052F82410AA8801FB02F1090B818103A83E
:10125000214602AB009001AA604614F0C9FA301989
:1012600001998175029980F820100399002908BF1F
:10127000012114D0012900E017E008BF02210ED09F
:10128000022908BF03210AD0032908BF002106D084
:1012900006E006EB4401488038888881D7E7C176AC
:1012A000641C3078A0423FF670AF00270097687842
:1012B0003C46694614F08CFA0098182808BF0320B1
:1012C0001ED00CDC002808BFB76215D0102808BF5C
:1012D000012015D0142808BF022011D00BE01C28D3
:1012E00008BF04200CD0402808BF052008D049289A
:1012F00008BF062004D0012411B02046BDE8F08FBD
:10130000B062F9E7A0000020C42C0020D82C0020F7
:1013100070B50C4C00260C4D60807020A1802968AF
:101320008847696870208847512818BF032601D074
:10133000304670BDA5607020607008212170E9689A
:101340008847F5E7A0000020AC0000201D4A30B51A
:10135000136823F0010313601B4A1368C3F30B14D3
:101360000123A4F54065243D06D01268C2F30B1298
:10137000A2F54064273C10D1144A12686AB9144A95
:1013800014684FF08A45B5EB045F11D01268C2F3C0
:101390000B02A2F58064833C0AD00E4A93609368E6
:1013A000002BFCD110601068884209D0002030BDAD
:1013B000094A13601368002BFCD1074A083AF1E789
:1013C000012030BD002000E000ED00E0002004E03E
:1013D0000010005C00300240084C025810B570B19B
:1013E0000B494FF4FA620B4800F0C0FC0A494FF475
:1013F000FA62BDE8104001F6FC7000F0B7BC054889
:1014000000F06CFDBDE81040044800F067BD00002E
:10141000303D0020845C0020D04C0020CC5C0020BB
:1014200010B5846B204600F0B6FD0120207110BD80
:1014300010B5846B204600F07DFD0120207110BDA9
:1014400010B5846B206940F004002061204600F054
:10145000A4FD0120207110BD10B5846B206940F0FF
:1014600004002061204600F067FD0120207110BDBE
:1014700010B5806B00F090FD10BD10B5806B00F0D2
:101480005AFD10BD0148806801F0B6B8705C0020BC
:10149000164870B5416811F0020F25D00221816015
:1014A000134900200860BFF34F8F081F43F6FF75F4
:1014B00000681049C0F34E3CC0F3C90405EA4C1261
:1014C000204600BF42EA80730B60401EFAD2BCF196
:1014D000010CF3D2BFF34F8FBFF36F8F0648006844
:1014E000406801684969884770BD000000B002404B
:1014F00084ED00E074EF00E0A001002070B4D0F8AB
:1015000000C02C4D039C95FAA5F6DCF84450B6FAC1
:1015100086F6B340234305F040442343CCF84430DF
:101520000368DA634268B2F5403F1FBF0068C160DC
:1015300070BC704701F47F42836801F47F0422434A
:10154000002B01F07F4C01F47F0601F47F44CDB203
:1015500004BF42EA0C01294318D0012B08BF42EA1C
:10156000050113D001F47F02C1F3C401D20C022B98
:1015700010D0032B14D0220B310D13014FEA1C7233
:1015800043EA0123290943EA0232114300688163D7
:1015900070BC7047A30A5B0143EAC2221143F5E71E
:1015A000E40A4FEADC734FEA441C4CEA822242EA26
:1015B000C332EAE70000FF3F014801F01DB8000018
:1015C0001C5F0020014801F017B80000BC5E00203D
:1015D00070B4D1E9006CD1E90243D1E90425012EB0
:1015E00043EA02064CEA040C8C69D1E907324CEA62
:1015F0000606D1F824C046EA050141EA040109D0F3
:101600000B4301681A4342EA0C026FF30E011143C7
:1016100001600CE005684468134325F4F8424CEA85
:1016200002021A4302606FF30E042143416070BC52
:1016300000207047426942EA410141610020704741
:10164000F8B515460446D1E9002388686FF01F0CF1
:10165000C9681A430CEB401040EA41201043009047
:10166000206101F0C7FB0646A06910F0200F0ED0E4
:10167000B5F1FF3F07D025B101F0BCFB801BA842AC
:1016800001D90320F8BDA06910F0200FF0D100208F
:10169000F8BD2DE9F0036FF00F058B68D1E9006C00
:1016A0002C01761E27044FEA04294FEA043805EB83
:1016B0000C15B1F810C035430E7E04EB03248B8A61
:1016C0002543C96809EB0C4408EB035C012A07EBCE
:1016D00006630ED082683E1306EB01310D4302F023
:1016E000704145EA040242EA0C021A431143816048
:1016F00013E00E038168C2682543A6F5805421F4E7
:1017000070412B4321F4700144EA0C0C02F070424A
:101710001A434CEA01018160C2600020BDE8F00379
:1017200070470000004870473060002000234DF8EB
:10173000044D00291C469C46136021D990F90030C5
:10174000F3B1202B18BF401CF8D100BF10F9013FA6
:10175000B3B1202BFAD0641C8C4210D1844611689E
:1017600001F10101116010F9011F002918BF2029A2
:10177000F5D11068002808BF4FF0000C00E0DDD361
:101780005DF8044B604670472DE9F047354D07463C
:10179000012691468A464FF000086868002804BF79
:1017A000314868603AD1006804682046FEF7CDFDF4
:1017B0000246B856202818BF002804D121463846D2
:1017C000FEF7EEFD28B16868406868600028EAD13D
:1017D0003EE06B68186890F90C20002A1CDB97F833
:1017E00000C000203C460146BCF1000F11D000BFF4
:1017F0000CF0FF0CBCF1200F18BF00211AD000BF65
:1018000014F801CFBCF1000FF2D1012904BF401E32
:1018100040B2904218BF0026D3B18EB168683A46F4
:1018200049460068836850469847060008BFC5F8D7
:10183000048013E00129E3D00121401C40B2DFE71E
:101840000A494A465046FEF774FDC5F8048005E093
:1018500007494A465046FEF76CFD00263046BDE873
:10186000F0870000100100201C010020B4AB01082B
:101870000CAC010870B5050011D0082014F01CFF55
:10188000040017D015F030F810480021C4E90051C9
:1018900001684C60046015F04DF8012070BD4FF4F4
:1018A000A07072B680F31188BFF34F8FBFF36F8FB4
:1018B00062B6FEE74FF4A07072B680F31188BFF3F2
:1018C0004F8FBFF36F8F62B6FEE70000100100205C
:1018D0000249002208680A607047000024010020C5
:1018E00070B482B04FF0000CCDF800C090F83C20EE
:1018F000012A01BF022002B070BC7047012280F8AB
:101900003C200A680724654B0568092A1DD90A3A54
:10191000EE6802EB420204FA02F226EA0202EA60F0
:101920000A689A4206D102680C7AD56845EA0464CE
:10193000D4601CE004680A3A8D6802EB4202E66853
:1019400005FA02F23243E26011E02E6902EB420234
:1019500004FA02F226EA02022A6102680C788D6813
:10196000166904EB440405FA04F4344314614A682C
:101970001F24072A15D20568521E02EB82026E6BE5
:1019800004FA02F226EA02026A6302680D790C8800
:101990006D1E566BA4B205EB8505AC403443546311
:1019A0002CE005680D2A14D2D21F2E6B02EB8202A6
:1019B00004FA02F226EA02022A630C7902680D8810
:1019C000E61FACB206EB8605166BAC4034431463DD
:1019D00014E00D3AEE6A02EB820204FA02F226EA01
:1019E0000202EA6202680C790D880D3CD66AADB23B
:1019F00004EB840405FA04F43443D462284A0468EE
:101A0000944204BF0C68122C05D1D2F8044344F46C
:101A10008004C2F804430468944233D10C689C42A9
:101A200018BF112C2ED1D2F8044344F40004C2F89C
:101A300004430968994225D11A491B4A0968B1FB38
:101A4000F2F101EB81014900009101911AD0B1F14D
:101A5000004F1DD20029D8BF002105DD11F0010182
:101A600002D0009A521E0092019A491C521C9142C7
:101A7000B8BF009B06DA5B1E891C9142A3F10103EB
:101A80000093F8DB80F83CC002B0002070BC7047C7
:101A90000099491E0091FCD1F4E7000012000010EB
:101AA000002001400000002040420F0000684FF479
:101AB0007A71074AA0F18043B3F5903304BF1180D7
:101AC0007047A0F18043B3F5913308BF5180704750
:101AD000DC00002000680021074AA0F18043B3F534
:101AE000903304BF11807047A0F18043B3F5913368
:101AF00008BF518070470000DC00002070470000E4
:101B000070B504004FF0000604BF012070BD206CCA
:101B1000002528B96564204684F83C5000F0B0F8F0
:101B2000206C10F0100F18BF012603D0304684F847
:101B30003C5070BD206C20F4885040F002002064BE
:101B40004D486FF07061D0F8042322F44032C0F8A1
:101B50000423D0F8042363681A43C0F804232068E0
:101B6000426822F48072426020682269436843EA36
:101B7000022242602068426822F04072426020687F
:101B8000A26843681A4342602068826822F40062B7
:101B900082602068E26883681A438260A06AC84253
:101BA0002068816821F070618160206804BF8168CD
:101BB00021F040510CD0A16A8268114381602068F5
:101BC000816821F0405181602068E16A8268114398
:101BD00081602068816821F0020181602068A1692C
:101BE000826842EA41018160206A002820684168D9
:101BF00008BF21F4006113D041F400614160206806
:101C000041684FF4604221F460414160206892FADB
:101C1000A2F2616AB2FA82F24368491E9140194306
:101C2000416020681549C26A22F47002C2622068CD
:101C3000A28BC36A01EB02511943C162206881681B
:101C400021F4007181602068216B826842EA4121A1
:101C500081602068816821F4806181602068616909
:101C6000826842EA812181606564206C20F0020074
:101C700040F00100206459E7002001400000F0FF1F
:101C80002DE9F04F0646324800250321326807153A
:101C900087B0A2F18043B3F590334FF400684FF45E
:101CA00000594FF4807A4FF4003B29D0A2F18043D1
:101CB000B3F591331CBF07B0BDE8F08F026842F462
:101CC000806202600068009700F480600590CDE9B2
:101CD00001152048694600F057FF1F4C1F48810539
:101CE0002060C4E90115C4F81CA02046C4E90357CC
:101CF000C4E908B5C4E9058900F070FD10B3FEE73A
:101D0000026842F4807202600068029500F48070FC
:101D100005900120CDE900011148694600F034FF2B
:101D2000104C1148C4E90005C4F81CA02046A56069
:101D3000C4E90357C4E908B5C4E9058900F04EFDBC
:101D400000B1FEE7B463A66307B0BDE8F08F000002
:101D500044380240001402401C5F0020106402401E
:101D600000000240BC5E00207064024030B583B0C9
:101D7000044600251346009590F83C00012802BF58
:101D8000022003B030BD012084F83C002068826846
:101D900012F0010F2DD1D0F808C04A4A4CF0010CC6
:101DA000C0F808C048480068B0FBF2F010EB4000F3
:101DB000009001901DD0B0F1004F7DD20028D8BF17
:101DC000002005DD10F0010002D0009A521E0092A2
:101DD000019A401C521C9042B8BFDDF800C008DADE
:101DE000801CACF1010C9042ACF1010CCDF800C0AC
:101DF000F6DB2068826812F0010F59D0226C22F0C5
:101E0000010222F4C06242F480722264406810F43D
:101E1000806F05D0206C20F4005040F48050206486
:101E2000206C10F4805F08BF656403D0606C20F004
:101E30000600606484F83C506FF02200D4F838C08B
:101E4000224ACCF83C20D4F838C0214ACCF84020B3
:101E5000D4F838C01F4ACCF84C20226810602068A3
:101E6000426842F0806242602068826842F4807278
:101E700082602268A06B02F14C0C0A46614600F0B9
:101E80006FFD1549D1F8040310F01F0F206807D02B
:101E9000884204BF816811F0405F05D008E00BE084
:101EA000816811F0405F03D1816841F08041816019
:101EB00003B04FF0000030BD0098401E0090FCD1F0
:101EC00097E7000040420F000000002035060008A0
:101ED000B30600089D0600080020014010B590F8E8
:101EE0003C1004460020012904BF022010BD01213E
:101EF00084F83C1021688A6822F001028A60216817
:101F00008A6812F0010F11D1886820F4807088600F
:101F1000A06B00F0C7FA21684A6822F080624A602C
:101F2000216C21F4885141F001012164002184F8E1
:101F30003C1010BD7047704770474379012B04BFB8
:101F40000220704770B4012343714FF0020C80F8F7
:101F500004C0D0F800C040F6FE75D1E9004121432D
:101F6000DCF8004005FA02F601FA02F524EA06015F
:101F7000C0242943CCF80010016804FA02F2D1F819
:101F800000C02CEA020CC1F800C0002203714271AB
:101F9000104670BC7047704770477047002804BFF8
:101FA0000120704770B504460079002518B9204615
:101FB000657100F007F8022121710120256120716F
:101FC000002070BD2449F0B50546086887B040F090
:101FD00001000860086800F0010005901F480268D1
:101FE00042F000520260006800F00050059008685E
:101FF00040F400100860086803210026029600F4EF
:10200000001005901020CDE900011548694600F048
:10201000BBFD154C4FF40060124A4FF0606743104F
:102020004FF0400CC110226082016760C4E90430A7
:102030002262C4E90601C4E902C6204600F0CEFBD4
:102040000022AC6010201146A56301F087FA102031
:1020500001F078FA07B0F0BD303802404038024055
:102060000000024088600240302D00202DE9F04140
:1020700004460D469446069800226179012904BF62
:102080000220BDE8F08101260221002D6671217138
:1020900032D0E16800282D4FCF63E7682C493964BE
:1020A000E7682C49F96421680F6847F080570F6092
:1020B00004BF206800F114020AD0042804BF20687D
:1020C00000F1180204D0082804BF206800F11C02A7
:1020D0002068016841F000510160E068614600F04D
:1020E0003FFC2068002106FA05F203681A430260EB
:1020F00008466171BDE8F081A1680028164FCF63E2
:10210000A76816493964A7681549F96421680F68FA
:1021100047F480570F6004BF206800F108020AD01E
:10212000042804BF206800F10C0204D0082804BF72
:10213000206800F110022068016841F4005101603C
:10214000A068614600F00CFCCBE7000031140008E9
:102150007B140008591400082114000871140008A9
:102160004114000870B504464FF48050012500FA70
:1021700001F220680029036805FA01F123EA02024E
:1021800002602068026822EA010101600CBFA068B9
:10219000E06800F087F900281ABF04212171257139
:1021A00070BDF8B504469C46DDE9066094F8383009
:1021B000012B04BF0220F8BD0125022384F838500A
:1021C00084F8393023685A613346624600902046CD
:1021D000FFF794F92068016841F40C510160206810
:1021E000016841F0010101600020F8BD90F838302D
:1021F00000EB01121832012B04BF0220704770B4AB
:10220000012580F83850022380F839304FF4403CE3
:10221000D2E901369CFAACF4DFF898C0B4FA84F441
:1022200006FA04F41C430A2B12BF092BD36803F0EF
:102230007F4308D04FF07F46D36896FAA6F6B6FAE9
:1022400086F603FA06F30029016843EA04030ED078
:10225000CC6924EA0C0C4CEA0303CB6101681368D7
:102260000B6151680A2918BF092914D018E04C6A7B
:1022700024EA0C0C4CEA03034B62016813688B617F
:1022800051680A2918BF09290AD1D168026821F0CA
:102290007F41916204E0D168026821F07F411162C0
:1022A0004FF0000180F8395080F83810084670BCB3
:1022B000704700000F0003FF002804BF0120704793
:1022C0002DE9F04704464E480025006810F4000F41
:1022D0007ED0206803274FF00109016811F0010F3B
:1022E00023D0016821F0050141F00401016000F0F4
:1022F00081FD06462068006810F0010F0BD000BF7A
:1023000000F078FD801BB0F57A7F47D82068006820
:1023100010F0010FF4D12068016821F40C51016024
:1023200084F8399084F8385052E0416A11F0200F57
:102330001AD0016800F1240841F00401016000F0A6
:1023400059FD0646D8F8000010F0200F37D000BF26
:1023500000F050FD801BB0F57A7F1FD8D8F8000040
:1023600010F0200FF4D12AE0C16911F0200F2FD016
:10237000016841F004010160206800F11C0800F0D0
:1023800039FD0646D8F8000010F0200F17D000BF26
:1023900000F030FD801BB0F57A7F0BD9E06B84F83C
:1023A000385040F02000E06384F839700120BDE827
:1023B000F0870DE0D8F8000010F0200FE8D1206879
:1023C000016821F46451016084F8399084F8385030
:1023D000204600F044F82068056020680561206808
:1023E00085612068C5612068456220684563E563B2
:1023F00084F83950002084F83850BDE8F087000098
:1024000030380240002804BF0120704770B50446F0
:1024100090F83900002520B9204684F8385000F0A3
:102420001FF8022084F83900D4E900020121036872
:1024300023F440331A4302602068A268436B23F000
:1024400007031A4342632068E368026C6FF30D02CE
:102450001A430264E56384F83910002070BD7047A8
:10246000704738B50446049894F838C0BCF1010FA1
:1024700004BF022038BD01254FF0020C84F838500B
:1024800084F839C000902046FFF738F820680168CA
:1024900041F40C5101602068016841F001010160C4
:1024A000002038BD2DE9F041876D044600F0A2FC04
:1024B000054694F835000026022806D08020606585
:1024C000012084F83460BDE8F0812068016821F0C3
:1024D000160101602068416921F080014161206C92
:1024E000002804BFA06C002804D02068016821F0F7
:1024F000080101602068016821F001010160206885
:10250000006810F0010F12D000F074FC401B052889
:1025100008D920216165032084F8346084F83500EF
:10252000BDE8F0812068006810F0010FECD194F84C
:102530005C103F22012002FA01F1B96084F8346096
:1025400084F835000020BDE8F08190F835100229AC
:1025500003D08021416501207047052180F83510A6
:102560000068016821F0010101600020704700004F
:10257000002804BF0120704790F83510022904BFDD
:1025800002207047002102682123D2F800C02CF0FD
:10259000010CC2F800C00268116002685160026854
:1025A00091600268D160026811610268536102683B
:1025B0000F4B02F0FF0CACF1100C6FF30902A3FB00
:1025C0000CC3DFF830C01B09032B1CF803C0C0F894
:1025D0005CC088BF121D3F23826503FA0CF3936031
:1025E000416580F8351080F83410002070470000F5
:1025F000ABAAAAAAAC8F01082DE9F8430446744A95
:10260000002700970821A56D4FF4165094F85C3010
:1026100012682E68B2FBF0F801FA03F3334211D0CE
:102620002068026812F0040F0CD0026822F0040245
:10263000026094F85C0001FA00F0A860606D40F060
:102640000100606594F85C1062488840304209D00F
:102650002168496911F0800F04D0A860606D40F0D6
:102660000200606594F85C105B488840304209D0F5
:102670002168096811F0020F04D0A860606D40F075
:102680000400606594F85C1010208840304220D02F
:102690002168096811F0080F1BD0A8602068016844
:1026A00011F4802F09D0006810F4002F02D0A16C23
:1026B00079B10CE0216C51B90BE0016811F4807F15
:1026C00003D1016821F008010160216C09B12046A5
:1026D000884794F85C1020204FF001098840304270
:1026E0004AD02168096811F0100F45D0A86094F80D
:1026F000350005282068016809D011F4802F2BD0FF
:10270000006810F4002F24D0E16B21B332E021F0F7
:10271000160101602068416921F080014161206C4F
:10272000002804BFA06C002804D02068016821F0B4
:102730000801016094F85C004FF03F0101FA00F0DD
:10274000A86084F8347084F83590216DD1BBBDE861
:10275000F883616C71B90FE0016811F4807F07D1D3
:10276000016821F01001016084F8347084F835901C
:10277000E16B09B120468847606D002808BFBDE8BD
:10278000F883606D10F0010F17D04FF0050084F84A
:1027900035002068016821F001010160009800F116
:1027A00001000090404504D82068006810F0010F37
:1027B000F4D184F8347084F83590E16C002908BFB6
:1027C000BDE8F883204601B0BDE8F04308470000AB
:1027D0000000002001008000040080002DE9F04787
:1027E000044600F007FB002C054604BF0120BDE8AD
:1027F000F0870026022084F8346084F835002068D1
:10280000016821F0010101602068006810F0010FEB
:1028100011D000BF00F0EEFA401B052806D9202198
:102820006165032084F83500BDE8F0872068006802
:1028300010F0010FEED1D4E9023CD4E90010D4E944
:10284000047218434CEA0708D4E90653D4E908C7D0
:1028500040EA0809086849EA0202DFF8F8802A43DA
:1028600042EA030200EA080042EA0C02042F42EAAC
:10287000000003D1D4E90B231A43104308602368F6
:102880000122606A5969042821F0070140EA010128
:1028900044D1A06AD4F818C00143BCF1000F0AD09B
:1028A000BCF5005F1CD000281CBF012802282CD0DA
:1028B000032826D032E020B1012807D002280AD010
:1028C0002CE0E06A10F0807F1FD127E0E06AB0F1D1
:1028D000C07F23D119E0E06A10F0807F15D11DE0A0
:1028E00098B1012808D002280FD0032804BFE06A5D
:1028F000B0F1C07F09D011E0E06A10F0807F04D110
:102900000CE0E06A10F0807F08D04FF04000606576
:1029100084F835204FF00100BDE8F0875961206848
:102920000D49C3B2A3F110036FF30900A1FB0331FA
:102930000A4B4FEA111103295B5CE36588BF001D58
:102940003F21A06599408160666584F835200020AC
:10295000BDE8F0873F8010F0ABAAAAAAAC8F0108AF
:10296000F0B490F834404FF0000C012C846D02BF9D
:102970000220F0BC704790F83570012680F8346072
:102980000025012F1CBF4FF0020C80F8345002D0FC
:10299000F0BC60467047022680F8356045650568E2
:1029A0002E6826F480262E6005686B608368402BB5
:1029B000036803BF9A600268D16099601CBF016818
:1029C000CA6090F85C103F2202FA01F1A160016830
:1029D0000A6842F016020A6001684A6942F0800201
:1029E0004A61016C21B101680A6842F008020A607C
:1029F0000068016841F001010160C9E731B500F0EC
:102A0000F9F9044600F0F6F90099001B8842F9D361
:102A100038BD00002DE9F04FDFF864A100220F253A
:102A20004FF0010808FA02FC01EA0C0363457DD16E
:102A30000668032457004FEAD20904FA07F7BE4399
:102A40000660540700EB8909D9F820B0E60E22F0A1
:102A5000030405FA06FE04F18046940706F598364D
:102A60002BEA0E0BC9F820B0D0F808B04FEA147961
:102A700005FA09F450452BEA070BC0F808B0D0F866
:102A800004B02BEA0C0CC0F804C0D0F80CC02CEA3F
:102A9000070CC0F80CC0D6F808C804EA0C0C08BF34
:102AA00000273ED0A0F18047B7F5013708BF0127C6
:102AB00037D0A0F18047B7F5023708BF022730D0E2
:102AC000A0F18047B7F5033708BF032729D0A0F14D
:102AD0008047B7F5043708BF042722D0A0F180470C
:102AE000B7F5053708BF05271BD0A0F18047B7F51C
:102AF000063708BF062714D0A0F18047B7F507377F
:102B000008BF07270DD0A0F18047B7F5083708BFE9
:102B1000082706D0A0F18047B7F509370CBF092771
:102B20000A2707FA09F7674523D100E021E0D6F824
:102B30000898144F29EA0404C6F8084807F1040C61
:102B4000D7F800900CF10404261D29EA0309C7F800
:102B50000090DCF800709F43CCF80070D4F800C0FF
:102B60002CEA030CC4F800C0D6F800C02CEA03031A
:102B70003360521C102AFFF455AFBDE8F08F0000FF
:102B800000000240003C01402DE9F84F8F4E00222A
:102B900001274FF003094FF00F0800BF0B6807FA39
:102BA00002FC03EA0C03634540F00A814C68022CE6
:102BB00018BF122C13D14FEAD204D1F810B04FEA4B
:102BC000427A00EB8404256A4FEADA6A08FA0AFEC0
:102BD0000BFA0AFA25EA0E054AEA0505256291F87C
:102BE00004B04FEA4204D0F800A00BF0030B09FA3E
:102BF00004F50BFA04FB2AEA050A4BEA0A0AC0F8B4
:102C000000A0D1F804A0BAF1010F18BFBAF1020F69
:102C100005D0BAF1110F18BFBAF1120F19D1D0F8BF
:102C200008A0D1F80CB02AEA050A0BFA04FB4BEA1B
:102C30000A0AC0F808A0D0F804A091F804B02AEA63
:102C40000C0CCBF3001B0BFA02FA4AEA0C0CC0F88E
:102C500004C0D0F80CC0D1F808A02CEA050C0AFA80
:102C600004F444EA0C0CC0F80CC0D1F804C01CF009
:102C7000805F7DD0356822F0030C4FEA827445F402
:102C8000804535604FEA147435680CF1804C0CF5C2
:102C9000983C05F48045009508FA04FADCF80858D9
:102CA000A0F1804BBBF5003B25EA0A0508BF4FF0B9
:102CB000000A48D0A0F1804ABAF5013A08BF4FF0A7
:102CC000010A40D0A0F1804ABAF5023A08BF4FF09D
:102CD000020A38D0A0F1804ABAF5033A08BF4FF093
:102CE000030A30D0A0F1804ABAF5043A08BF4FF089
:102CF000040A28D0A0F1804ABAF5053A08BF4FF07F
:102D0000050A20D0A0F1804ABAF5063A08BF4FF074
:102D1000060A18D0A0F1804ABAF5073A08BF4FF06A
:102D2000070A10D0A0F1804ABAF5083A08BF4FF060
:102D3000080A08D0A0F1804ABAF5093A0CBF4FF052
:102D4000090A4FF00A0A0AFA04FA214C4AEA050570
:102D5000CCF808584D68D4F800C015F4803F2CEA30
:102D6000030C18BF4CEA030C1A4DC4F800C000E075
:102D700026E04C68D5F800C014F4003F2CEA030CA0
:102D800018BF4CEA030CDFF850A0C5F800C04C682F
:102D9000DAF800C014F4801F2CEA030C18BF4CEAC8
:102DA000030C0E4CCAF800C04D68D4F800C015F4EE
:102DB000001F2CEA030C18BF4CEA030CC4F800C037
:102DC000521C102AFFF4EAAEBDE8F88F44380240E6
:102DD000003C0140043C0140083C01400C3C0140E7
:102DE0004269514041617047002A08BF090481616E
:102DF000704700000148006870470000EC000020A8
:102E0000002804BF0120704710B50446242084F830
:102E100041002068016821F001010160204600F0B6
:102E20001BFA0020606484F84100206384F84200AB
:102E300084F8400010BD90F841007047002804BF9E
:102E40000120704770B5044690F84100002520B974
:102E5000204684F8405000F000FA242084F8410015
:102E60002068016821F001010160D4E9001020F020
:102E7000706008612068816821F400418160E06829
:102E800021680128A0680CBF40F4004040F40440D1
:102E90008860E068022802D1216880024860202111
:102EA0002068426842F4004242F0007242602068AA
:102EB000C26822F40042C260D4F800C0D4E904021F
:102EC000A369104340EA0320CCF80C002368D4E93E
:102ED0000702104318602068026842F00102026095
:102EE000656484F84110256384F84250002070BD69
:102EF0002DE9FF4F83B0044690F841009A46894679
:102F0000DDE91087DDF848B0202840F0C580B8F131
:102F1000000F18BF002F7DD094F8400001287AD010
:102F2000012084F84000FFF765FF012205461923C0
:102F30000090D103204602F0A9FB00286CD10026A6
:102F4000C4F82480222084F84100402184F84210F3
:102F500066646785534666634946CDE900B5059AC0
:102F6000204602F009FB48B1606C84F840600428F8
:102F70000CBF0120032007B0BDE8F08F608DC9F3BE
:102F8000090ADFF81C814AF47F07FF284FF0FF0988
:102F900047F080770AD9A4F8289047F410522068A7
:102FA000416801EA0801114341600FE0608D20850E
:102FB00094F828004AEA00422068416842F410521E
:102FC00042F0007201EA08011143416000225B46B1
:102FD00004212046009502F059FB002842D12168C7
:102FE000606A496A421C62620170208D401E0004C2
:102FF000000C2085618DA1F10101618526D1608DD4
:1030000020B300225B4680212046009502F03EFB63
:1030100010B902E02AE03FE024E0608DFF2807D9E4
:10302000A4F828902068416801EA080139430CE0BF
:10303000608D208594F828004AEA0041206841F01C
:103040000072416801EA080111434160608D002867
:10305000BCD12A465946204602F04CFB50B1606C68
:10306000042803D007B00320BDE8F08F07B001208B
:10307000BDE8F08F206820210A4AC16120684368BA
:103080001A40426084F8411084F84260002084F8BD
:10309000406007B0BDE8F08F07B00220BDE8F08FB8
:1030A000009800FC00E800FE2DE9FF4F83B00446C5
:1030B00090F841009A468946DDE91085DDF848B070
:1030C000202840F0C080B8F1000F18BF002D7CD040
:1030D00094F84000012879D0012084F84000FFF7DF
:1030E00089FE0122074619230090D103204602F0F1
:1030F000CDFA00284BD10026C4F82480212084F882
:103100004100402184F84210666465855346666339
:103110004946CDE900B7059A204602F071FA48B158
:10312000606C84F8406004280CBF0120032007B0C5
:10313000BDE8F08F608DC9F3090ADFF814814AF405
:103140007F05FF284FF0FF0945F0807508D9A4F8E6
:1031500028902068416801EA0801294341600DE098
:10316000608D208594F8280021684AEA004040F0EC
:103170000072486800EA0800104348603A46594621
:10318000204602F021FB18B1606C042845D040E0D5
:10319000606A411C6162216800788862608D401E0F
:1031A0006085208D401E0004000C208525D1608D97
:1031B00018B300225B4680212046009702F066FA91
:1031C00038BB608DFF280AD901E026E03BE0A4F877
:1031D00028902068416801EA080129430CE0608DCD
:1031E000208594F828004AEA0041206841F00072E6
:1031F000416801EA080111434160608D0028BDD19A
:103200003A465946204602F075FA50B1606C0428DF
:1032100003D007B00320BDE8F08F07B00120BDE860
:10322000F08F206820210B4AC161206843681A4052
:10323000426084F8411084F84260002084F84060C5
:1032400007B0BDE8F08F07B00220BDE8F08F0000A6
:10325000009800FC00E800FE7047704702480168D3
:10326000491C016070470000EC000020032010B5ED
:1032700000F0A4F9002000F005F800F02BF9002080
:1032800010BD0000084A10B504464FF47A70126869
:10329000B2FBF0F001F0CEFB00222146501E00F000
:1032A0005DF9002010BD0000000000202DE9F05F56
:1032B000044690F8A000012804BF0220BDE8F09F5A
:1032C0000125022002EB820384F8A05084F8A100BB
:1032D00003EBC200B1E8C81F04EB80003830A0E85F
:1032E000C81F91E8C811203980E8C811204602F0B3
:1032F000C1FB216800204D6284F8A15084F8A00031
:10330000BDE8F09F90F8A10070470000002804BFBE
:103310000120704770B5044690F8A100002520B93F
:10332000204684F8A05000F081F83F48022184F83C
:10333000A110012221688B6923F070438B61D4E9CD
:10334000013C43EA0C03D4E9031C41EA0C0C21685C
:1033500043EA0C03D1F818C043EA0C038B612168DF
:103360008B6803408B602168A38AD4F818C08E68EC
:1033700046EA0C0C4CEA03438B602168CB6803409F
:10338000CB602168A38BD4F820C0CE6846EA0C0C31
:103390004CEA0343CB6021680B6903400B61216851
:1033A000A38CD4F828C00E6946EA0C0C4CEA0343FF
:1033B0000B6121684B69184048612068A18D236B1F
:1033C000D0F814C04CEA030343EA0141416121688B
:1033D00094F8353094F83600D1F82CC000040CF085
:1033E0007F4CC1F82CC040EA0321206894F83430A7
:1033F000D0F82CC04CEA03031943C1622068416B2A
:1034000041F0040141632068416B41F002014163D6
:103410002068816941F001018161C4F8A45084F8F9
:10342000A120002070BD000000F800F070470000EF
:10343000DFF858C0F0B443780CF10402111DCCF849
:1034400000300378002B04BF002010601BD04368BD
:103450001360057BC37A827A90F80DC02F07847BB6
:1034600047EA0367C57B47EAC242467A42EA8C4292
:10347000037A42EA444242EA0542007842EA0622DE
:1034800042EA430210430860F0BC704798ED00E048
:10349000BFF35F8F044800210368044A23F480339C
:1034A000036011607047000024ED00E094ED00E03F
:1034B000074A40F0010005491060086840F4803078
:1034C0000860BFF34F8FBFF36F8F704724ED00E0AC
:1034D00094ED00E0032010B500F070F800226FF0CA
:1034E0000B00114600F03AF800226FF00A00114676
:1034F00000F034F800226FF00900114600F02EF8B9
:103500000022501F114600F029F80022101F11461A
:1035100000F024F80022901E114600F01FF800224F
:103520000F21BDE81040501E00F018B8410900F00E
:103530001F008A00012102F1E02201FA00F0C2F826
:1035400080017047410900F01F008A00012102F14B
:10355000E02201FA00F0C2F800017047164B30B4C7
:103560001B68C3F30223C3F1070CBCF1040F88BF2F
:103570004FF0040C1C1D072C34BF0023DB1E01245C
:1035800004FA0CFC04FA03F5ACF101042140A5F1A6
:10359000010C99400CEA0202114300284FEA011184
:1035A000B8BF00F00F0000F1E020B4BF80F8141D98
:1035B00080F8001430BC70470CED00E0074900F0C3
:1035C00007004FF6FF030A681A4042EA002040F065
:1035D000FD7040F080600860704700000CED00E076
:1035E000BFF34F8F05480649026802F4E0621143B9
:1035F0000160BFF34F8F00BFFDE700000CED00E05E
:103600000400FA051C4838B5016841F0805101609A
:1036100000681A4D00F080500090286840F4803017
:103620002860FFF7E7FB0446686810F4803F09D183
:10363000FFF7E0FB001BB0F57A7F15D8686810F43F
:10364000803FF5D0286840F400302860FFF7D2FBB7
:103650000446686810F4003F0CD100BFFFF7CAFBB6
:10366000001BB0F57A7F01D9032038BD686810F4DB
:10367000003FF3D0002038BD4038024000700040C9
:10368000F8B500250446FFF7B5FB064694F8390067
:1036900010F0020F32D0002084F838002068016852
:1036A00011F0040F0BD0016821F004010160606B80
:1036B000FEF7F8FE18B1E06B40F00400E06320680C
:1036C000016841F002010160206C012202213346B1
:1036D0000090204602F036FC05000FD12168022040
:1036E000C8600022206C202133460090204602F062
:1036F00029FC050004BF012084F839002846F8BDE4
:103700002DE9F84F1E46154689460446FFF772FB21
:10371000824694F83800012804BF0220BDE8F88FE3
:1037200001274FF0000884F8387094F83900012818
:1037300018BF022004D000BF84F83880BDE8F88F9D
:103740004220C4F83C8084F83900002220215346EE
:103750002046009602F0F6FB0028EDD1216828688B
:1037600088622168686848622168A868C862206821
:103770002969026822F4400242F480021143016088
:10378000E8684FF000624946C9F82800204602F078
:10379000B1FA0122534608212046009602F0D2FBDE
:1037A0000028C9D122680821D16084F83970C3E7A4
:1037B0002DE9F84F16468A460446FFF71BFB834661
:1037C00094F83800012804BF0220BDE8F88F0127D3
:1037D0004FF0000884F8387094F83900012818BFB9
:1037E000022504D084F838802846BDE8F88F4FF0D1
:1037F0000209C4F83C8084F83990002220215B46FD
:103800002046009602F09EFB0500EBD100225146B7
:10381000204602F06FFADAF82400002818BF84F876
:103820003970DFD101225B4602212046009602F06A
:1038300089FB0500D6D12068C0F80C9084F8397057
:10384000D0E7002804BF0120704710B5044690F867
:103850003800012804BF022010BD012084F8380080
:103860002068016821F001010160204600F0B5F8F0
:103870000020E06384F8390084F8380010BD0000AF
:103880002DE9F8430446FFF7B5FA002C074604BFBC
:103890000120BDE8F88394F83800012804BF022015
:1038A000BDE8F8830126002584F8386094F83900D3
:1038B00038B984F83850204600F090F841F288304A
:1038C000206420686FF0FF03A268016803EB022206
:1038D00021F4F85111430160206C002220213B4665
:1038E0000090204602F02EFB50BB2168D4E907C3AC
:1038F0002779E268D1F8008042EA0C0C124A43EAC8
:1039000007634CEA030328F0D00C2CF07F4C43EA09
:103910000C030B602168D4E9053C278AD1F80480A8
:1039200043EA0C0308EA020242EA07421A434A60E9
:1039300021680A6842F001020A60E56384F8396090
:1039400084F83850BDE8F883FEF8E0FF2DE9F8432D
:10395000154688460446FFF74DFA94F838100129B9
:1039600004BF0220BDE8F8830121002784F8381045
:1039700094F83910012918BF022604D084F8387051
:103980003046BDE8F883216C8222E76384F8392051
:103990000022034620460091202102F0D3FA0600BF
:1039A000ECD120686968026822F0080211430160C6
:1039B000686808280AD122681020296811632168E4
:1039C000C8602068016841F4801101604FF04062D6
:1039D0004146204602F08EF9D0E7704770472DE946
:1039E000F84F15468A460446FFF704FA81462068D8
:1039F000816994F8382000F12006012A04BF0220D2
:103A0000BDE8F88F01274FF0000884F8387094F86B
:103A10003920012A18BF022003D084F83880BDE87D
:103A2000F88FBAF1000FC4F83C8038D0222284F815
:103A300039200269521C62860269521C2286C4F82F
:103A40002CA0426922F0406242F08062426120680C
:103A50008161608E90B101224B460621204600957F
:103A600002F070FAC0B93178E06A421CE26201707B
:103A7000608E401E6086608E0028ECD101224B468D
:103A800002212046009502F05DFA28B92168022043
:103A9000C8602046FFF7F4FD84F83970BDE7E16B9C
:103AA000012041F00801E163B7E700002DE9F84F7C
:103AB00015468A460446FFF79DF994F8381081466A
:103AC0002068012900F1200604BF0220BDE8F88F1C
:103AD00001274FF0000884F8387094F83910012954
:103AE00018BF022004D000BF84F83880BDE8F88FEA
:103AF000BAF1000FC4F83C8034D0122184F8391098
:103B00000169491C61850169491C2185C4F824A00B
:103B1000416921F040614161608D90B101224B46C5
:103B200004212046009502F00DFAC0B9606A411CDC
:103B3000616200783070608D401E6085608D002865
:103B4000ECD101224B4602212046009502F0FAF901
:103B500028B921680220C8602046FFF791FD84F84B
:103B60003970C1E7E16B012041F00801E163BBE777
:103B70002DE9F84F04460078DFF824844FF000095F
:103B800010F0010FCA4610D0D8F8000020F4000051
:103B9000C8F80000D8F80000616B0843C8F80000BE
:103BA000606B002808BF4FF00109FE4D206810F43B
:103BB000002F10D0E06B296821F4401108432860E1
:103BC000E06BB0F5801F08BF4FF0010903D000285B
:103BD00008BF4FF0010A206810F4801F10D0206C3D
:103BE000296821F4400108432860206CB0F5800F5B
:103BF00008BF4FF0010903D0002808BF4FF0010AA9
:103C0000206810F0807F18BF4FF0010910F0200FDE
:103C100060D0E548016841F0805101600068E34FE1
:103C200000F080500090386840F480703860FFF7F2
:103C3000E1F80646386810F4807F09D1FFF7DAF81A
:103C4000801B642800F22B83386810F4807FF5D045
:103C5000D74F386810F4407028D0218E01F440719D
:103C6000814223D03868396820F4407041F48031B3
:103C70003960396821F4803139603860386810F073
:103C8000010F13D0FFF7B6F80646386810F0020FA0
:103C900008BF41F2883B09D1FFF7ACF8801B5845BB
:103CA00000F2FD82386810F0020FF5D0206B4FF45F
:103CB000407181431CBFD8F8000020F4F81000F0D8
:103CC000D38000BFC8F80000208E3968C0F30B0015
:103CD00008433860207810F0100F07D0286820F0D3
:103CE000807028602868A16B084328602188B1484B
:103CF00011F4804F05D0616E026822F44032114306
:103D00000160218811F4004F05D0A16E026822F4F1
:103D1000402211430160216811F4803F05D0E16E1B
:103D2000026822F4401211430160216811F4003F3F
:103D300005D0216F026822F440021143016021780E
:103D400011F0400F05D0616C026822F003021143AC
:103D50000160217811F0800F05D0A16C026822F07B
:103D60000C0211430160218811F4807F05D0E16CC1
:103D7000026822F0300211430160218811F4007FB3
:103D800005D0216D026822F0C00211430160218834
:103D900011F4806F05D0616D026822F44072114306
:103DA0000160218811F4006F05D0A16D026822F432
:103DB000406211430160218811F4805F05D0E16DFC
:103DC000026822F4405211430160218811F4005F1F
:103DD00005D0216E026822F440421143016021683F
:103DE00011F4800F05D0A16F026822F080621143A8
:103DF0000160216811F4001F0BD0E16F026822F00E
:103E0000006211430160E16FB1F1006F08BF4FF034
:103E1000010A216811F0080F18BF4FF0010A11F4D0
:103E2000802F05D0616F026822F04072114301605B
:103E3000216811F4000F06D0D4F88010026822F037
:103E4000805211430160B9F1010F47F6C0794FF478
:103E500040364FF070674FF0E0481CBF2068B0F16B
:103E6000007F0CD000F029B9D8F8001020F4407081
:103E700020F0704021F4F81141EA000022E74E489A
:103E8000016821F080610160FEF7B4FF83464A4873
:103E9000006810F0006F0BD0FEF7ACFFA0EB0B003A
:103EA000642800F2FC814448006810F0006FF3D1F0
:103EB000207810F0010F34D0606B90BB3F4A10683F
:103EC00096FAA6F1126897FAA7F300F44030D4F8F6
:103ED00004C0B1FA81F199FAA9FBC84002F07061FF
:103EE000B3FA83F296FAA6FEBBFA8BF3BEFA8EFB08
:103EF000D14097FAA7FE0CFA03F2BEFA8EF3D4F87B
:103F000008C000FA0BF098FAA8FEDFF8B0B0104332
:103F10009940BEFA8EF208430CFA02F10843CBF83E
:103F20000000206810F4002F03D0E16BB1F5801F72
:103F300006D010F4801F4CD0206CB0F5800F48D113
:103F40001E49086896FAA6F2096800F44030B2FAF1
:103F500082F2636896FAA6FCD04099FAA9FB97FA18
:103F6000A7F2BCFA8CFCB2FA82FEBBFA8BFB98FA81
:103F7000A8F200FA0CF003FA0BF301F0E041D4F8D8
:103F80000CB0B2FA82F298FAA8FCD140BCFA8CFCD0
:103F900003430A480BFA0EF21A4301FA0CF10FE040
:103FA000083802408C38024040380240007000401F
:103FB0007038024090380240003802408438024095
:103FC000114301602868616A20F01F00491E084300
:103FD0002860206810F0807F32D0B64A106897FAC7
:103FE000A7F1126896FAA6FB00F07060B1FA81F1B1
:103FF00099FAA9FCC8400090BBFA8BFB2169BCFA76
:104000008CFC606898FAA8F302F0E04201FA0BF128
:1040100097FAA7FB00FA0CF0B3FA83F3BBFA8BFC18
:1040200040EA010E009898FAA8FBA249DA4000FA8B
:104030000CF0BBFA8BF34EEA00009A401043086084
:10404000206810F0007F20D099FAA9F1606896FAF4
:10405000A6F3D4F808E0D4E903C2B1FA81F1B3FAC7
:1040600083F300FA01F197FAA7FB92489A40BBFA52
:104070008BF398FAA8FB11430CFA03F2BBFA8BF30B
:104080000A430EFA03F1114301608B48016841F0C5
:1040900080610160FEF7AEFE83468748006810F03D
:1040A000006F0AD1FEF7A6FEA0EB0B0064287CD8B7
:1040B0008148006810F0006FF4D0BAF1000F75D09D
:1040C000DFF8F4A1DAF8000020F08050CAF8000010
:1040D000FEF790FE8346DAF8000010F0005F0AD089
:1040E000FEF788FEA0EB0B0064285ED8DAF800002B
:1040F00010F0005FF4D1206810F4002F01D0E16BC4
:1041000021B110F4801F3CD0206CD0BB6B490868F3
:1041100096FAA6F2096800F44030B2FA82F26369B6
:1041200096FAA6FCD04099FAA9FB97FAA7F2BCFA36
:104130008CFCB2FA82FEBBFA8BFB98FAA8F200FA6A
:104140000CF003FA0BF301F0E041D4F818B0B2FA26
:1041500082F298FAA8FCD140034358480BFA0EF2B9
:10416000BCFA8CFC1A4301FA0CF1114301606FF0A8
:10417000FF0B2868A16A20F4F8500BEB01210843DB
:104180002860206810F4001F39D0E06FB0F1006F94
:1041900035D14A49086897FAA7F3096898FAA8F24E
:1041A00099FAA9FCB2FA82F201E078E07FE096FA8F
:1041B000A6FB00F07060B3FA83F3BBFA8BFED4F871
:1041C00020B0D8406369BCFA8CFC0BFA0EFB97FA5E
:1041D000A7FE03FA0CF301F0E041BEFA8EFC98FA58
:1041E000A8FED14000FA0CF243EA0B0B334BBEFAA7
:1041F0008EF04BEA020201FA00F0104318602078BA
:1042000010F0080F37D02D480268016896FAA6FC16
:1042100096FAA6F397FAA7F601F44031BCFA8CFBA4
:10422000D4F814C002F07062B6FA86F621FA0BF1E7
:10423000F240B3FA83F3E66997FAA7F701FA03F3BA
:1042400099FAA9F9B7FA87F198FAA8F7B9FA89F9AA
:1042500002FA01F10CFA09FCB7FA87F24CEA0303FF
:10426000194306FA02F2114301602868E16A20F45A
:10427000403008432860DAF8000040F08050CAF867
:104280000000FEF7B7FD0446DAF8000010F0005F0A
:104290000DD100BFFEF7AEFD001B642802D903203C
:1042A000BDE8F88FDAF8000010F0005FF2D00020CF
:1042B000BDE8F88F84380240003802408838024058
:1042C0002DE9F047DFF8E48106460F46D8F80000F4
:1042D00000F00F00B8420CD2D8F8000020F00F0018
:1042E0003843C8F80000D8F8000000F00F00B842CA
:1042F00072D130786E4D10F0020F05D0B068296889
:1043000021F0F00108432860307810F0010F50D000
:1043100070686849012821D00968022823D011F06B
:10432000020F59D0296821F0030108432860FEF7E5
:1043300061FD0446706841F28839012817D00228CF
:10434000286800F00C0022D000B300BFFEF752FD39
:10435000001B484529D90320BDE8F087096811F4FE
:10436000003FDFD138E011F0007FDBD134E0286876
:1043700000F00C0004281CD0FEF73CFD001B484553
:10438000E9D8286800F00C000428F5D111E00828CD
:104390000FD000BFFEF72EFD001B4845DBD8286874
:1043A00000F00C000828F5D103E0286810F00C0F8D
:1043B000CCD1D8F8000000F00F00B8420FD9D8F8DF
:1043C000000020F00F003843C8F80000D8F80000C3
:1043D00000F00F00B84202D00120BDE8F08730782D
:1043E00010F0040F05D0F068296821F4E05108436B
:1043F0002860307810F0080F06D03069296821F461
:10440000604141EAC00028602B48296811F00C0186
:1044100038D02A4B042908BF184633D0082931D197
:10442000274947F6C07C0A680C6802F03F0214F482
:10443000800F0CD00868B3FBF2F29CFAACF300EAF0
:104440000C00B3FA83F3D84002FB00F20CE00B68D7
:10445000B0FBF2F09CFAACF203EA0C03B2FA82F27F
:1044600023FA02F200FB02F208684FF4403393FA99
:10447000A3F100F44030B1FA81F1C840401C400083
:10448000B2FBF0F02968F02292FAA2F201F0F001FA
:10449000B2FA82F2D1400B4A515CC8400A49086026
:1044A0000020FEF7EFFE0020BDE8F087003C024050
:1044B00008380240003802400024F40040787D01B2
:1044C00004380240968D01080000002008484FF48F
:1044D000E052016892FAA2F2064801F4E051B2FA01
:1044E00082F2D140044A0068515CC8407047000025
:1044F0000838024000000020A68D010808484FF44B
:104500006042016892FAA2F2064801F46041B2FAF0
:1045100082F2D140044A0068515CC84070470000F4
:104520000838024000000020A68D010821492248D9
:10453000096811F00C0108BF7047204B042904BF23
:1045400018467047082918BF70474DF8044D47F6C4
:10455000C0711B4AD2F800C014680CF03F0C14F470
:10456000800F0BD01068B3FBFCF391FAA1FC08405C
:10457000BCFA8CF1C84003FB00F00AE01368B0FB02
:10458000FCF091FAA1FC1940BCFA8CF3D94000FB75
:1045900001F011684FF440335DF8044B93FAA3F235
:1045A00001F44031B2FA82F2D140491C4900B0FB1B
:1045B000F1F07047083802400024F40040787D0193
:1045C000043802402DE9F84FEF4F04460078A7F178
:1045D000040810F0010FA8F1040559D0386800F064
:1045E0000C00042809D0386800F00C0008280DD110
:1045F000D8F8000010F4800F08D0286810F4003FAD
:1046000046D06068002800F0BC8141E06068B0F5E9
:10461000803F04BF286840F480300AD010B1B0F564
:10462000A02F11D0286820F480302860286820F45A
:10463000802028606068D0B1FEF7DCFB0646286861
:1046400010F4003F08D023E0286840F48020286060
:10465000286840F48030ECE7FEF7CCFB801B642830
:1046600000F23381286810F4003FF5D010E0FEF727
:10467000C1FB0646286810F4003F09D0FEF7BAFBDC
:10468000801B642800F22181286810F4003FF5D1D6
:10469000207810F0020F5CD038684FF0F80910F065
:1046A0000C0F18D0386800F00C00082804BFD8F8A8
:1046B000000010F4800F0ED0E0680028286835D084
:1046C00040F001002860FEF795FB0646286810F0D0
:1046D000020F15D01DE0286810F0020F1CBFE06823
:1046E000012840F04E812069296899FAA9F2B2FAAE
:1046F00082F221F0F80100FA02F041EA000013E032
:10470000FEF778FB801B02287ED8286810F0020F85
:10471000F6D02269286899FAA9F1B1FA81F120F05E
:10472000F80002FA01F10843286012E020F00100CD
:104730002860FEF75FFB0646286810F0020F08D0DD
:10474000FEF758FB801B02285ED8286810F0020F85
:10475000F6D1207810F0080F34D0DFF8309260697D
:104760000028D9F8000016D040F00100C9F8000078
:10477000FEF740FB0646D9F8000010F0020F21D1E9
:10478000FEF738FB801B02283ED8D9F8000010F055
:10479000020FF5D016E020F00100C9F80000FEF786
:1047A00029FB0646D9F8000010F0020F0AD000BF1E
:1047B000FEF720FB801B022826D8D9F8000010F055
:1047C000020FF5D1207810F0040F65D07048016811
:1047D00041F08051016000686E4E00F08050009002
:1047E000306840F480703060FEF704FB814630682A
:1047F00010F4807F0CD100BFFEF7FCFAA0EB09009B
:10480000642862D8306800E05FE010F4807FF3D065
:10481000A068614E012804BF306840F0010009D053
:1048200008B1052813D0306820F0010030603068EE
:1048300020F004003060A06841F2883AD0B1FEF761
:10484000D9FA8146306810F0020F08D024E03068B1
:1048500040F004003060306840F00100EAE7FEF705
:10486000C9FAA0EB090050452FD8306810F0020FAC
:10487000F5D011E0FEF7BEFA8146306810F0020F65
:104880000AD000BFFEF7B6FAA0EB090050451CD8CD
:10489000306810F0020FF5D1A069E8B3396801F073
:1048A0000C0108296DD00228286820F0807028604B
:1048B0000ED0FEF79FFA0446286810F0007F5DD006
:1048C000FEF798FA001B022854D90320BDE8F88FA0
:1048D000FEF790FA0646286810F0007F09D000BF66
:1048E000FEF788FA801B0228EFD8286810F0007FB6
:1048F000F6D1D4E9093247F6C0704FF4403690FA49
:10490000A0FC4FF0FF3096FAA6F700EB52024FF0F2
:104910007066BCFA8CF000E030E003FA00F0D4E9F5
:10492000071CB7FA87F7E36A02FA07F496FAA6F2C9
:10493000204341EA0C01B2FA82F2084303FA02F181
:10494000084340F00050C8F80000286840F080702C
:104950002860FEF74FFA0446286810F0007F0DD15A
:10496000FEF748FA001B0228AFD8286810F0007F35
:10497000F6D003E0286810F0007FA1D10020BDE848
:10498000F88F0120BDE8F88F0838024074380240E3
:10499000403802400070004070380240002804BFD8
:1049A0000120704770B5044690F82C000D4628B9D8
:1049B000002084F82D00204600F011F8022084F831
:1049C0002C002068211DFCF703FED4E900022946D3
:1049D000FCF75FFE012084F82C00002070BD7047BA
:1049E00010B5044690F82C00022808BF10BD022024
:1049F00084F82C002068FCF71DFE012084F82C00B0
:104A0000002010BD70B5044690F82C000D46022819
:104A100008BF70BD022084F82C002068FCF710FE4F
:104A2000286802280CBF0520012084F82C000020F3
:104A300070BD0000401EB0F1807F24BF0120704790
:104A40004FF0E0214861F020034A82F8140D002065
:104A5000072288610A6170470FE000E030B490F8E7
:104A60003820012A02BF022030BC7047012280F8A2
:104A7000382002685368A2F1804CBCF5803CD2F823
:104A800008C01CBFA2F18044B4F5823403D14C6845
:104A900023F4700323430C688D6823F070032CF01B
:104AA00080014FF0000C234353600268294391605A
:104AB00080F838C0604630BC7047002804BF012031
:104AC000704710B5044690F83900002804BF20460E
:104AD00000F00CF8022084F839002068211D01F054
:104AE000D1FA012084F83900002010BD704702215E
:104AF00080F83910012201680B6843F001030B6054
:104B000080F839200020704790F83820012A0DBF26
:104B10000220012380F83830704770B4022280F8F8
:104B20003920D0F800C0DCF8082022F0770222F407
:104B3000803222F47F42CCF808200A68502A49D0FB
:104B40000CDC202A7DD004DC002A7BD0102A7AD00D
:104B5000BCE0302A78D0402A7CD0B7E0602A56D01A
:104B6000702A0DD0B2F5805F03D0B2F5005F1ED081
:104B7000ACE001688A6822F0070222F4803244E047
:104B80000268D1E9014CC968956844EA012141EA0B
:104B90000C0C25F47F414CEA0101916001688A68A0
:104BA00022F0770222F4803242F077022DE0026890
:104BB000D1E9014CC968956844EA012141EA0C0C2D
:104BC00025F47F414CEA0101916001688A6842F452
:104BD00080421AE00268D1F804C0C968146A156AF4
:104BE00025F00106166224F00A05946945EA0C0CCA
:104BF00024F0F00444EA01119161C2F820C0016878
:104C00008A6822F0700242F057028A605EE0026811
:104C1000D1F804C0C968146A24F0100414629469BD
:104C2000166A24F4704526F0A00445EA013191612A
:104C300044EA0C1CC2F820C001688A6822F07002A5
:104C400004E034E023E02AE039E003E042F06702C8
:104C50008A603BE00268D1F804C0C968146A156A2A
:104C600025F00106166224F00A05946945EA0C0C49
:104C700024F0F00444EA01119161C2F820C00168F7
:104C80008A6822F0700242F047028A601EE00168E2
:104C90008A6822F0700242F007028A6016E001681A
:104CA0008A6822F0700242F017028A600EE0016802
:104CB0008A6822F0700242F027028A6006E00168EA
:104CC0008A6822F0700242F037028A60002180F880
:104CD000393080F83810084670BC70472DE9F0472D
:104CE000044690F8380001280DBF0220012584F801
:104CF0003850BDE8F08702200C2A84F8390019D01A
:104D000008DC7AB1042A11D0082A04BF206801F017
:104D100084FA5DE0DFF8C8C0102A324B0ED0142AA6
:104D200031D055E0206801F00FFA51E0206801F021
:104D30003EFA4DE0206801F0A6FA49E02068026AD8
:104D400022F480320262066A4268476D6045B1F81B
:104D5000089026F40036D1F8008027F0700C2CF46F
:104D6000803C46EA094648EA0C0C18BF984204D138
:104D70004B6922F4803242EA03224260C0F854C0F8
:104D80004968816523E02068026A22F48012026289
:104D9000076A4268466D6045B1F8089027F400172D
:104DA000D1F8008026F4E04C2CF0807C47EA0956CC
:104DB0004CEA082C18BF984204D14B6922F4802297
:104DC00042EA83224260C0F854C04968C165066265
:104DD0004FF0000084F8395084F83800BDE8F087BF
:104DE0000000014000040140002804BF012070477A
:104DF00010B5044690F8390028B9002084F838002E
:104E0000204600F00CF8022084F839002068211DAB
:104E100001F038F9012084F83900002010BD7047F6
:104E20000268012303FA01F1136A8B431362136AC8
:104E3000194311620168A1F18042B2F580321CBFB2
:104E4000A1F18042B2F5823203D14A6C42F40042B1
:104E50004A640068016841F0010101600020704768
:104E60007047000070B5016804462025C8690A68CB
:104E70008B6810F00F0F57D003F0010C02F49076FE
:104E80005CEA060600F0F58010F0010F18BF12F47E
:104E9000807F05D001260E62E16E41F00101E166DE
:104EA00010F0020F18BF13F0010F06D02668022180
:104EB0003162E16E41F00401E16610F0040F18BFA9
:104EC00013F0010F06D0236804211962E16E41F04E
:104ED0000201E16610F0080F1CBF02F0200151EA48
:104EE0000C0106D0236808211962E16E41F0080127
:104EF000E166E16E002908BF70BD10F0200F18BFF9
:104F000012F0200F0BD094F86A202046B4F85C1001
:104F1000222A49D02068816941F008018161E06E50
:104F200010F0080F77D171E010F0200F18BF12F0C9
:104F3000200F6AD094F86A302046B4F85C20222B07
:104F400004D0886940F00800886170BD8368B3F5BB
:104F5000805F04BF0369002B4B6A416D03EA0202C4
:104F60001DD001F10103436581F80020B0F85A100B
:104F7000A1F101010904090CA0F85A1018BF70BD75
:104F800001680A6822F490720A6001688A6822F057
:104F900001028A6080F86A5000F034FA70BD0A801D
:104FA000416D891C4165E1E78268B2F5805F04BF0D
:104FB0000269002A0368426D5B6A1FD002F1010C8E
:104FC000C0F854C003EA010182F80010B0F85A108A
:104FD000A1F101010904090CA0F85A109FD1016840
:104FE0000A6822F490720A6001688A6822F001025D
:104FF0008A6080F86A5000F005FA90E71940118045
:10500000416D891C4165E1E705E032E02068806878
:1050100010F0400F27D02068016821F490710160E2
:105020002068816821F00101816084F86A5020685D
:10503000816811F0400F12D0816821F04001816039
:10504000606E60B12E490165606EFDF77EFA002842
:1050500008BF70BD606E016DBDE870400847204616
:10506000FFF7FEFE70BD2046FFF7FAFE0020E06667
:1050700070BD10F0800F18BF12F0800F30D094F880
:105080006900212818BF70BDB4F85200A8B1A0680B
:10509000B0F5805F04BF20690028E06C17D000F1F4
:1050A0000101E16421680078C1F82800B4F85200D9
:1050B000A0F10100A4F8520070BD086820F0800043
:1050C00008602068016841F04001016070BD0088FF
:1050D000C0F308008862E06C00F10200E064E5E7DC
:1050E00010F0400F14BF12F0400F70BD0A68204648
:1050F00022F040020A6084F8695000F03BFA70BD6B
:10510000AF640008002804BF0120704710B50446B2
:1051100090F8690028B9002084F86800204600F063
:1051200029F8242084F869002068016821F0010131
:105130000160204601F0C6F9012808BF10BD606A71
:1051400000281CBF204601F015F92068416821F4B1
:10515000904141602068816821F02A0181602068C7
:10516000016841F0010101602046BDE8104001F0F6
:105170006EB9000070B586B00024009401940294CA
:10518000039404940068A0F18041B1F588311CBFFC
:1051900006B070BD1C48016841F010010160006854
:1051A00000F0100005901948016841F0020101600B
:1051B000016801F002010591016841F001010160FF
:1051C00000680022114600F0010005902520FEF73E
:1051D000C5F92520FEF7B6F907266946802000901C
:1051E00002250B48CDE90154CDE90346FDF7CCFC7F
:1051F00028020090CDE9015406486946CDE90346EE
:10520000FDF7C2FC06B070BD4438024030380240A1
:1052100000040240000002402DE9F05F044690F8CF
:105220006A001D4617460E4620286ED1002E12BF7A
:10523000002F0120BDE8F09F94F86800012864D099
:10524000012084F8680022214FF0000BC4F86CB0F4
:1052500084F86A10FDF7CEFD8046A068A4F8587067
:10526000A4F85A70FF21B0F5805F06D04FF07F029E
:1052700050B1B0F1805F0CD012E02069002808BF67
:1052800040F2FF1002D109E02069E8BBA4F85C10ED
:1052900006E02069002818BF3F2037D0A4F85C0042
:1052A000B4F85A00B4F85C90002818BF09F0FF0A5F
:1052B00046D000BFB4F85A00401EA4F85A00206837
:1052C0002027C06937EA000028D000BFB5F1FF3FB2
:1052D0001FD02DB1FDF78EFDA0EB0801A94218D318
:1052E000216820200A6822F4D0720A6021688A6846
:1052F00022F001028A6084F8690084F86A000320C1
:1053000084F868B0BDE8F09F00E02CE0A4F85C20D1
:10531000C6E72068C06937EA0000D7D1A068B0F5B9
:10532000805F04BF2069002814D02068406A00EA2A
:105330000A0006F8010B00BFB4F85A000028B9D1E2
:105340004FF0200084F86A004FF0000084F868B045
:10535000BDE8F09F2168304606F10206496A01EA7D
:1053600009010180E8E74FF00200BDE8F09F90F8E6
:105370006A30202B44D1002912BF002A0120704737
:1053800090F86830012B3BD083684FF0010C4165E9
:1053900080F868C0A0F85820A0F85A20B3F5805FC4
:1053A0004FF0FF0106D04FF07F024BB1B3F1805FA9
:1053B00009D00FE00269002A08BF40F2FF1107E0A0
:1053C0000369D3B904E00169002918BF3F2114D053
:1053D000A0F85C1000212222C16680F86A2080F8C3
:1053E000681001688A6842F001028A6000680168FA
:1053F00041F49071016000207047A0F85C20E9E75B
:105400000220704770B5144C0646E51CA078415D3B
:1054100012A010F031F83068A0F18041B1F5883168
:1054200018BF70BD01200E4AA178802901D22378CF
:1054300013B12070556070BD4B5D0D2B08BF6070BF
:10544000F8D0481CA0705068411C51603046BDE83F
:1054500070400122FFF78BBF385E002025630000FB
:10546000DC0000202DE9F84F044690F869001D4645
:1054700017460E4620287AD1002E12BF002F012099
:10548000BDE8F88F94F86800012870D0012084F8F6
:10549000680021214FF00009C4F86C9084F869106D
:1054A000FDF7A8FC8046A4F85270B4F852004FF003
:1054B000200AA4F8507000283ED000BFB4F8520073
:1054C000401EA4F8520020688027C06937EA000017
:1054D00022D000BFB5F1FF3F19D02DB1FDF78AFCF6
:1054E000A0EB0801A94212D32068016821F4D07111
:1054F00001602068816821F00101816084F869A061
:1055000084F86AA0032084F86890BDE8F88F2068CA
:10551000C06937EA0000DDD1A068B0F5805F04BF44
:10552000206900281CD0206816F8011BC0F828103C
:10553000B4F852000028C1D143464FF000024FF0AA
:1055400040012046009501F01BF9002811BF0320FF
:1055500084F869A084F868900020BDE8F88F06E020
:10556000216836F8020BC0F308008862E0E70220E9
:10557000BDE8F88F704700002DE9F8430446164651
:10558000C1F309021D46D8B21C4B2168DDE9089819
:1055900042EA0042486842F4005218401043486012
:1055A00042464946204600F00FF918B1606C0428C5
:1055B0000FD01FE0012DF7B20ED02068310A8162B2
:1055C00042464946204600F0FFF828B1606C0428A6
:1055D00010D10120BDE8F8832068876200224021B5
:1055E0004B462046CDF8008000F050F8002808BF58
:1055F000BDE8F8830320BDE8F8830000009800FCB4
:105600002DE9F84304461D46D8B21646C1F30903F6
:105610001D4A216843EA0043DDE9089848681040C4
:1056200043F4005242F080721043486042464946BB
:10563000204600F0C9F818B1606C04280FD01FE0B4
:10564000012DF7B20ED02068310A816242464946E8
:10565000204600F0B9F828B1606C042810D1012070
:10566000BDE8F88320688762002280214B462046EF
:10567000CDF8008000F00AF8002808BFBDE8F883E4
:105680000320BDE8F8830000009800FC2DE9F041FC
:10569000044600681D461646DDF818800F468069EE
:1056A00031EA00000CBF01200020B0421ED100BF33
:1056B000B5F1FF3F11D02DB1FDF79CFBA0EB080029
:1056C000A8420AD90020202184F8411084F8420021
:1056D00084F840000320BDE8F0812068806937EA43
:1056E00000000CBF01200020B042E1D00020BDE846
:1056F000F08100002DE9F0410446006816460D4691
:10570000806910F0200F04BF4FF02008002755D10A
:105710002068806910F0100F38D02068806910F080
:10572000200F16D1B5F1FF3F0ED025B1FDF762FB7A
:10573000801BA84208D984F8418084F84270012077
:1057400084F84070BDE8F0812068806910F0200F77
:10575000E8D021681020C8612068C0F81C8020684B
:10576000816911F0020F18BF87622068816911F00A
:10577000010F03D1816941F0010181612068042199
:10578000104A43681A4042606164D4E725B1FDF7CE
:1057900031FB801BA8420CD9606C84F8407040F04B
:1057A0002000606484F8418084F842700320BDE8E2
:1057B000F0812068806910F0200FA9D00020BDE89A
:1057C000F081000000E800FE2DE9F0410446006889
:1057D00016460D46806910F0020F04BF4FF02008F6
:1057E000002758D12068806910F0100F38D0206849
:1057F000806910F0200F16D1B5F1FF3F0ED025B112
:10580000FDF7F8FA801BA84208D984F8418084F893
:105810004270012084F84070BDE8F0812068806902
:1058200010F0200FE8D021681020C8612068C0F86F
:105830001C802068816911F0020F18BF8762206800
:10584000816911F0010F03D1816941F0010181618A
:1058500020680421114A43681A4042606164D4E719
:10586000B5F1FF3F12D025B1FDF7C4FA801BA84265
:105870000CD9606C84F8407040F02000606484F8BB
:10588000418084F842700320BDE8F081206880697F
:1058900010F0020FA6D00020BDE8F08100E800FE65
:1058A0002DE9F04387B00446FDF7C5FA00281CBF78
:1058B00007B0BDE8F0834D4812224D494FF4807780
:1058C0004C4E84424C4D4FF002034FF0040C4FF00D
:1058D000000014BFDFF82481DFF82481C4F80080C1
:1058E0004FF00109DFF81C81C4E90180C4E903908D
:1058F0006061E0612062D1F8008039D148F0800811
:10590000C1F800800968DFF8008101F0800105918D
:105910004FF08001CDF810C0CDE90012CDE90203AF
:1059200069464046FDF730F9694640460097FDF765
:105930002BF9306840F400003060306800F400005B
:105940000590286840F400002860286820F40000D2
:10595000286000220F214820FDF700FE4820FDF7B7
:10596000F1FD00220F214920FDF7F8FD492035E027
:1059700048F00208C1F800800968CDE9020301F08F
:105980000201CDE904C1CDE90072204F69463846D5
:10599000FDF7FAF87815694600903846FDF7F4F8F7
:1059A000306840F400103060306800F4001005905A
:1059B000286840F400102860286820F4001028604F
:1059C00000220F211F20FDF7C9FD1F20FDF7BAFDA2
:1059D00000220F212020FDF7C1FD2020FDF7B2FDA0
:1059E00007B02046BDE8F043FDF728BA9029002013
:1059F0003038024040380240203802400054004015
:105A0000005C004032279140001C0240000402402C
:105A1000144810B5006810F0010F19D0124B012185
:105A2000124A134C181D1960118803688B4210D15B
:105A300051880160206890F86610491C80F8661053
:105A400006F00AF9206808F0DFFF002009F0D0FF17
:105A500010BD0160002009F0E5FF20680168896938
:105A60008847F5E7386801403C6801401A0000208B
:105A7000A00100202DE9F84FD0F800C088258E88BD
:105A80008C2305EBC2189424DCF80C50C5F30B45AD
:105A90002E445CF8085003EBC21305F470454FEA3E
:105AA000064B4CF80850D0F8009004EBC21CD1F81B
:105AB00000E09C249825CDF80090A0264FF0000A25
:105AC000D9F80C90AC2704EBC21405EBC21506EB19
:105AD000C21607EBC217C9F30B4909F10109F144DA
