:020000040800F2
:10000000B8DE0220A5020008AD020008AF02000819
:10001000B1020008B3020008B502000800000000A9
:10002000000000000000000000000000E9010008DE
:10003000B9020008000000003D020008654D0008FC
:10004000BF020008BF020008BF020008BF0200088C
:10005000BF020008BF020008BF020008BF0200087C
:10006000BF020008BF020008BF020008BF0200086C
:10007000BF020008BF020008BF020008BF0200085C
:1000800075120008BF020008BF020008BF02000886
:10009000BF020008BF020008BF020008BF0200083C
:1000A000BF020008BF020008BF020008BF0200082C
:1000B000BF020008BF020008BF020008BF0200081C
:1000C000BF020008BF020008BF020008BF0200080C
:1000D000BF020008BF020008BF020008BF020008FC
:1000E000BF020008BF020008BF020008BF020008EC
:1000F000BF020008BF020008BF020008BF020008DC
:10010000BF020008BF020008BF020008BF020008CB
:10011000BF020008BF020008BF020008BF020008BB
:1001200049130008BF020008BF020008BF02000810
:1001300055130008BF020008BF020008BF020008F4
:10014000BF020008BF020008BF020008BF0200088B
:10015000BF020008BF020008BF020008BF0200087B
:10016000BF020008BF020008BF020008BF0200086B
:10017000BF020008BF020008BF0200080000000024
:10018000BF020008BF020008BF020008BF0200084B
:10019000BF020008BF020008BF020008BF0200083B
:1001A00069470008BF02000881120008BF0200086A
:1001B000BF020008BF020008BF020008BF0200081B
:1001C000BF020008BF020008DFF818D000F00CF9E9
:1001D00000F0BCF800480047513A0108AFF3008036
:1001E00000F0E1F8B8DE02202B4B19680868B0E88F
:1001F000F04F80F30988BFF36F8F4FF0000080F35A
:10020000118870470000000006480068006880F30D
:10021000088862B661B6BFF34F8FBFF36F8F00DF00
:1002200000BF00BF08ED00E0DFF80C00016841F4FA
:1002300070010160704700BF88ED00E0EFF30980B6
:10024000BFF36F8F144B1A681EF0100F08BF20ED1C
:10025000108A20E9F04F106008B44FF4A07072B615
:1002600080F31188BFF34F8FBFF36F8F62B614F026
:1002700021F84FF0000080F3118808BC1968086865
:10028000B0E8F04F1EF0100F08BFB0EC108A80F3FA
:100290000988BFF36F8F70472C000020EFF30580B3
:1002A000704700000648804706480047FEE7FEE723
:1002B000FEE7FEE7FEE7FEE7FEE7FEE7FEE7FEE716
:1002C000E14D0008C90100082DE9F04117460E462E
:1002D000054633B107FB0354E41B2046B047A54253
:1002E000FAD1A5F10800BDE8F08140EA01039B07BF
:1002F00003D009E008C9121F08C0042AFAD203E09B
:1003000011F8013B00F8013B521EF9D27047D2B2FE
:1003100001E000F8012B491EFBD270470022F6E7EE
:1003200010B513460A4604461946FFF7F0FF20466B
:1003300010BD30B504460020034600E05B1C93422C
:1003400003D2E05CCD5C401BF8D030BD70B5054CED
:10035000054D03E0206820448047241DAC42F9D1BC
:1003600070BD0000188A0108288A01082DE9F041B3
:10037000074615460E46102013F000FC04000AD074
:100380006760C4E9026500F009F801682160046053
:100390000020BDE8F0810120FBE700000048704725
:1003A0008801002070472DE9F0410646FFF7F6FF6F
:1003B0008046454613E016B1E068B0420ED1206891
:1003C0002860D4E90101D8F800708847204613F06E
:1003D000AFF9D8F80000B842EBD100E025462C6810
:1003E000002CE8D1BDE8F081064C074D06E0E0683E
:1003F00040F0010394E8070098471034AC42F6D36C
:10040000FFF7E6FE2486010844860108704770B5B0
:100410008C1810F8015B15F0070301D110F8013BAF
:100420002A1106D110F8012B03E010F8016B01F836
:10043000016B5B1EF9D12B0705D40023521E0DD48E
:1004400001F8013BFAE710F8013BCB1A921C03E0DC
:1004500013F8015B01F8015B521EF9D5A142D8D314
:10046000002070BD08B54FF6FF726946ADF8002058
:100470000DF0B2FE08BD10B50146806B026C12F0A3
:10048000500F05D0806BC26C0846BDE81040104785
:10049000016C41F40071016401688A6812F0405FE8
:1004A00017D18269AAB9CA6A12F4700F02D08A6899
:1004B00052050ED44A6822F020024A60016C21F4F1
:1004C00080710164016CC90403D4016C41F0010125
:1004D000016401F0E9F810BD10B5806B40210164A2
:1004E000416C41F00401416401F006F910BD10B502
:1004F000806B01F0EDF810BD4B496FF0706210B5E4
:10050000D1F8043323F44033C1F80433D1F8043371
:1005100044682343C1F8043301684B6823F48073B3
:100520004B60016803694C6844EA03234B6001682F
:100530004B6823F040734B60016884684B68234329
:100540004B6001688B6823F400638B600168C468AA
:100550008B6823438B60816AD14201688A6822F0EC
:1005600070628A6001680DD0836A8A681A438A6063
:1005700001688A6822F040528A600168C36A8A680A
:100580001A4302E08A6822F040528A6001688A6851
:1005900022F002028A60016882698B6843EA4202A3
:1005A0008A60016A002901684A6815D042F4006235
:1005B0004A6001684A684FF4604322F460424A602E
:1005C000016893FAA3F3426AB3FA83F44B68521EAC
:1005D000A24013434B6002E022F400624A600168CB
:1005E000124BCA6A22F47002CA620168848BCA6A1A
:1005F00003EB04531A43CA6201688A6822F400724A
:100600008A600168026B8B6843EA42228A60016853
:100610008A6822F480628A60016840698A6842EAD6
:100620008020886010BD0000002001400000F0FF25
:100630000648C02330B408240522046061034361E6
:10064000C261C16230BC02F0E7BD0000A0250020FD
:10065000094810B50068816941F0010181610122FA
:100660000648110301F0BCFF01220548BDE8104017
:10067000082101F0B5BF0000242600200020024020
:10068000002802400548006800EB800101EBC00033
:10069000034901EB8000006E7047000088000020D5
:1006A000242600200548006800EB800101EBC00013
:1006B000034901EB8000406E704700008800002075
:1006C000242600202DE9F041204C2820092140F269
:1006D0001B1604F1140840F21525352240F21D1CAA
:1006E0000B2340F2352788E8EF1000212046FFF762
:1006F0009FFF4FF4F07222664FF48871616600200C
:1007000084F8340084F8350084F836006060A06016
:100710000F4AE06022602061204602F0A4F918B977
:100720000021204600F01AF8084802F09FF9012243
:100730000848110301F054FF07480122082101F085
:100740004FFF00F0E3FA0020BDE8F08124260020EE
:100750000068014000200240002802404748F0B5F0
:10076000016887B041F080610160006800F080603E
:10077000059042481438016841F4000101600168A5
:1007800001F400010591016841F010010160016868
:1007900001F010010591016841F04001016001681C
:1007A00001F040010591016841F480710160016828
:1007B00001F480710591016841F4007101600168E4
:1007C00001F400710591016841F4806101600168E4
:1007D00001F480610591016841F480710160016854
:1007E00001F480710591016841F480610160006845
:1007F00002240E2500F4806005901020CDE900044D
:1008000002A8002180E832001D48694601F0F8FD89
:10081000E6026946092004901A48CDE9006401F017
:10082000EFFD194F4FF46740CDE9000469463846A3
:10083000049501F0E5FD4EF6FF706946CDE9000430
:100840001248049501F0DCFD0495F720104D69462F
:10085000CDE90004284601F0D3FD0124694638465D
:10086000CDE9006401F0CCFD08206946CDE9000423
:10087000284601F0C5FD07B0F0BD00004438024035
:1008800000100240001802400020024000240240F4
:100890000028024030B5002887B01BD10F490E4D0B
:1008A000086840F480700860086803220C4C00F46B
:1008B0008070059001202168CDE90010CDE9020289
:1008C0006946284601F09CFD2088002281B2284616
:1008D00001F086FE07B030BD0020024030380240F3
:1008E000D4580108002806D104490022024809888A
:1008F00089B201F075BE704700200240D45801084B
:10090000002806D1044901220248098889B201F071
:1009100067BE704700200240D4580108002805D166
:1009200004490348098889B201F056BE70470000A7
:1009300000200240D45801080849074810B5086053
:10094000084602F0E4FA08B1012010BD0348002176
:1009500000F098F8002010BD001000A064280020CE
:1009600070B590B04FF440640020A20307944FF498
:1009700080760B90EB25009571010391CDE908027B
:100980000C900A230D900EAA0F9069460E90054810
:10099000CDE9053602F038FB002800D0012010B068
:1009A00070BD00006428002030B520248FB00021E5
:1009B00062014FF48075D3000393CDE907210991BB
:1009C000CDE905150B91CDE900400B480C910D9137
:1009D00004F094F968B9084841F28832694602F097
:1009E00053FA30B904484FF4487103F0FFFF002870
:1009F00000D001200FB030BD6428002010B54FF0AA
:100A0000807421130B110A010261C0E90041C0E9A1
:100A10000213002010BD000070B5194C174820606B
:100A2000204602F074FAD8B90021204600F062F89E
:100A30004FF08071002091FAA1F10122B1FA81F109
:100A40001602491EC4E905600423E06110252062F6
:100A5000C4E90351C4E90123204602F075FA08B144
:100A6000012070BD064804F0FCF820B9044804F0E9
:100A7000B3F80028F5D0042070BD0000001000A0DD
:100A8000642800205C2010B502F0ECF8154C4021E1
:100A9000204601F00BFC0421204601F007FCE11484
:100AA000114C204601F002FCA114204601F0FEFB8F
:100AB0000E48042101F0FAFB4FF40051204601F0EA
:100AC000F5FB0B480A492031026842F0020202603D
:100AD000026822F002020260086820F0020008604A
:100AE00010BD000000040240000C02400010024053
:100AF00018380240414870B586B0016841F00201E3
:100B00000160006800F0020005903C482038016850
:100B100041F002010160016821F0020101603748E3
:100B20000838016841F002010160016801F002012A
:100B30000591016841F002010160016801F00201C4
:100B40000591016841F008010160016801F00801A8
:100B50000591016841F008010160016801F0080198
:100B60000591016841F010010160016801F0100178
:100B70000591016841F0080101600068022101222D
:100B80001F4E00F008000590402003230A248DE842
:100B90001F006946304601F033FC002069460425F9
:100BA0000095092404940290304601F029FC154E6A
:100BB0006802694604940090304601F021FCA802C6
:100BC000694604940090304601F01AFC0E486946CC
:100BD0000095049401F014FCE80269460494009026
:100BE000304601F00DFC00220F215C2002F050F88D
:100BF0005C2002F042F806B070BD000038380240B8
:100C000000040240000C024000100240F0B58FB01A
:100C100005464FF480744FF0EB0C4FF4406E002308
:100C20004FF04076CDE9064E600103900A27059704
:100C3000CDE90A23CDE90836CDE900C141F2883477
:100C40000848224669460C930D9302F01DF930B90D
:100C500004482246294602F01FFA002800D001204D
:100C60000FB0F0BD642800202DE9F0438FB081461D
:100C7000002001E000F580708842FBD9441A9442BC
:100C800000D914460020122300934FF480754FF4CE
:100C900040666F0103974FF0407CCDF824C0CDE94A
:100CA0000760CDE9050501EB02080E4641F28837E1
:100CB0000B900C900D90144801960A9404F01EF8C5
:100CC00080B911483A46694602F0DEF850B90E483C
:100CD0003A46494602F042FA20B90B48394603F039
:100CE00085FE18B101200FB0BDE8F083264406F55B
:100CF00080704045A14402D9A8EB060400E02C46D0
:100D00004645D8D30020EEE7642800201B48022285
:100D10002DE9F04100F13401174E07230660042548
:100D200081E82C00CB6000240A61D7014A611023BE
:100D30008A61910244604026C0E902454A00C0E948
:100D40000741C0E909241030002180E8C8001038AC
:100D500000F05EF809490948343103F079F8084D8C
:100D600010B10120287000E02C7040F2036000F008
:100D700009F82878BDE8F081400100A0DC270020B8
:100D80008C0000202DE9F843204C102700254FF659
:100D9000FF780126009521468146C4E90067C4E931
:100DA0000265A1F15000424603F086F8012001F0EF
:100DB00072FA02202146C4E90007C4E90265A1F1E4
:100DC0005000424603F078F803214246C4E9001778
:100DD00008202146C4E90205A1F1500003F06CF897
:100DE0004FF40870009004214246C4E90260C4E94F
:100DF00000172146A1F1500003F05EF8A4F1500065
:100E00004946BDE8F84303F045B800002C2800200F
:100E1000F0B504464F4887B0016841F00101016018
:100E200000684C4900F0010005900839086840F45A
:100E300080000860086800F480000590086840F0B1
:100E400004000860086800F004000590086840F09D
:100E500008000860086800F008000590086840F085
:100E600010000860086800F010000590086840F065
:100E700020000860086800F020000590086840F035
:100E800040000860086800F040000590086840F0E5
:100E900080000860086801210C2200F080000590A5
:100EA0000220CDE9010108230093CDE903022A487D
:100EB000694601F0A5FA4CF2037000902748694694
:100EC00001F09EFA4FF6837000902548694601F0C4
:100ED00097FA4FF63F0000902248694601F090FAD9
:100EE00048F2331000902048694601F089FA282022
:100EF00000901E48694601F083FA1D494FF40075C1
:100F000000224FF0800CEE006F004A606801C1E9DA
:100F100002C5C1E904761831164EC300032581E8E5
:100F20000D00C1E903254A618A6141F8186D21630A
:100F30000F488C6301F003F80D4801F0FFF8002220
:100F40000F21382001F0A4FE382001F096FE07B0F2
:100F5000F0BD00003838024000080240000C02409A
:100F6000001002400014024000180240001C024021
:100F70001C270020106402402DE9F04F95B0584D19
:100F80004FF0000B06465C46CDF844B0CDF848B0B3
:100F9000CDF84CB0A868016968788847002830709F
:100FA0007ED000240DF1100A0DF1380908AF8BE056
:100FB000A8680DF12C080AEB440208EB44014369D0
:100FC000687898472878012807D138F8142029F83C
:100FD00014203AF8141027F81410810705D538F8B2
:100FE0001410C1F5805129F81410410705D53AF8BD
:100FF0001410C1F5805127F81410000707D538F8F0
:10100000140027F814003AF8141029F81410DFF827
:10101000D48039F8140058F82410884201D9421AB3
:1010200000E00A1A2F491FFA82FC37F81420143105
:1010300051F824309A4201D9D31A00E09B1A9BB28E
:101040006344052B03D948F8240041F8242095F87F
:1010500001C0BCF1700F26D058F8242006EB4400E4
:101060006B885A43120B428051F82410AA885143CE
:10107000090B818113A8214612AB009011AA60468A
:1010800012F0ECFB301911998175129980F820103B
:10109000139979B101290FD0022910D0032900E05A
:1010A0001AE010D10DE006EB4401488037F8140037
:1010B0008881DFE7012100E00221C17603E00321FE
:1010C000FBE780F81BB0641C3078A0423FF670AF9D
:1010D000304600F009F8044615B02046BDE8F08F10
:1010E000900000203C280020F8B504461448002653
:1010F000694600963546407812F0A0FB0098182803
:1011000016D005DC68B110280DD0142806D10CE0EB
:101110001C280FD040280FD049280FD00125284681
:10112000F8BDA662FBE7012000E00220A062F6E71E
:101130000320FBE70420F9E70520F7E70620F5E7A1
:101140009000002070B50C4C00260C4D6080702083
:10115000A18029688847696870208847512802D093
:101160000326304670BDA560702060700821217094
:10117000E9688847F5E70000900000209C00002007
:101180001D4A30B5136823F0010313601B4A13682E
:10119000C3F30B140123A4F54065243D06D0126867
:1011A000C2F30B12A2F54064273C10D1144A126816
:1011B0006AB9144A14684FF08A45B5EB045F11D040
:1011C0001268C2F30B02A2F58064833C0AD00E4A77
:1011D00093609368002BFCD110601068884209D09E
:1011E000002030BD094A13601368002BFCD1074A68
:1011F000083AF1E7012030BD002000E000ED00E0FA
:10120000002004E00010005C00300240084C02584E
:1012100010B5846B204600F0D3FB0120207110BD77
:1012200010B5846B204600F0A7FB0120207110BD93
:1012300010B5846B206940F004002061204600F066
:10124000C1FB0120207110BD10B5846B206940F0F6
:1012500004002061204600F091FB0120207110BDA8
:1012600010B5806B00F0ADFB10BD10B5806B00F0C9
:1012700084FB10BD0148806800F08CBEE857002058
:10128000074810B54168890709D50221816004F03B
:10129000C3FB04480068406801684969884710BD7D
:1012A00000B002406C010020F0B50468254E059D99
:1012B00096FAA6F7666CB7FA87F7BB402B4306F0A1
:1012C00040451D4365640368DA634268B2F5403FF8
:1012D00002D00068C160F0BD01F47F42856801F46E
:1012E0007F04224301F07F4301F47F0701F47F462E
:1012F000CCB2BDB1012D16D001F47F02C1F3C401FF
:10130000D20C022D11D0032D14D0320B390D150142
:101310001A0F45EA0123210943EA02320A43006811
:101320008263F0BD1A432243F9E7B30A5B0143EA43
:10133000C222F3E7F40ADB0F640144EA822242EAA4
:10134000C332EBE70000FF3F014800F023BE00007E
:10135000105A0020014800F01DBE0000B0590020C6
:1013600001681823CAB2103AB2FBF3F2054B6FF3CF
:101370000901032A9B5CC36500D9091D81650846E4
:1013800070470000745A010810B583694FF0C074AB
:10139000826A0146002053B1B3F5005F15D072B1E7
:1013A000012A0CD0022A0AD0032A09D104E01AB17A
:1013B000012A06D0022A03D1C96AC90100D5012039
:1013C00010BDC96AA142FAD010BD002AF7D0012A87
:1013D000F2D0022AF3D0032AF3D010BD30B504684E
:1013E000256825F480252560046863608368402BA8
:1013F000036803D099600068C26030BD9A600068DD
:10140000C16030BDF0B5D1E90125D1E90343D1E98F
:1014100005762A43D1F800C044EA0304D1E9073530
:1014200042EA0402496A42EA0702BCF1010F42EAB9
:10143000060208D004681A432A430A43E30BDB037D
:101440001A4302600BE0066844682B4326F4F84513
:1014500029430B4303606FF30E04224342600020D4
:10146000F0BD426942EA4101416100207047F8B590
:1014700005461446D1E90003D1E902216FF01F06A9
:10148000184306EB421242EA4121084300902861CA
:1014900001F0ACF8064609E0601C07D024B101F069
:1014A000A5F8801BA04201D90320F8BDA8698006D9
:1014B000F2D40020F8BD00002DE9F043914691E8F8
:1014C0001C006FF00F05521E2E0105EB03131A438B
:1014D0000B7E06EB04268C8A2F034FEA054C0D8AFF
:1014E00032434FF07F4808EB0366CB68B9F1010F38
:1014F00007EB05450CEB04540CD081683F1107EB5A
:1015000003331A432A432243324301F070410A4312
:10151000826011E08168DFF828C0C7681B03A3F56B
:10152000805323432A4301EA0C0132430B43836077
:1015300007F070442243C2600020BDE8F083000041
:10154000FF0F0FFFF8B50025009590F83C20012A09
:1015500018D0012280F83C200A6807234E4C066808
:10156000092A1AD90A3A02EB4207F268BB409A43A9
:10157000F2600E680268A64206D10B7AD66846EA87
:10158000036308E00220F8BD0A3E8B68D76806EBCB
:101590004606B3403B43D3600EE002EB420732699C
:1015A000BB409A43326103680E788A681F6906EB74
:1015B0004606B2403A431A614A681F23072A13D2EB
:1015C0000668521E02EB8207726BBB409A4372633D
:1015D00003680E790A88761E5F6B92B206EB860668
:1015E000B2403A435A6327E006680D2A12D2D21F4E
:1015F00002EB8207326BBB409A43326302680E797A
:101600000B88F61F176B9BB206EB8606B3403B4375
:10161000136311E00D3A02EB8207F26ABB409A4372
:10162000F26202680E790B880D3ED76A9BB206EB18
:101630008606B3403B43D362184A0368934208D1FD
:101640000B68122B05D1D2F8043343F48003C2F89F
:101650000433036893421AD10B68A34201D0112BC3
:1016600015D1D2F8043343F40003C2F804330968F7
:10167000A1420CD10A490B4A0968B1FBF2F101EB16
:101680008101490000E0491E00910029FBD180F84A
:101690003C500020F8BD0000120000100020014066
:1016A0000000002040420F0000684FF47A71054BA3
:1016B000054A984201D111807047044B9842FBD1F2
:1016C0005180704700200140CA00002000220140E4
:1016D00000680021054B064A984201D111807047ED
:1016E000044B9842FBD1518070470000002001401C
:1016F000CA00002000220140704770B504004FF07E
:10170000000503D0206C002610B107E0012070BD59
:101710006664204684F83C6000F01AF8206CC0062D
:1017200010D4206C20F4885040F002002064204641
:10173000FEF7E2FE6664206C20F0020040F001003B
:10174000206400E0012584F83C60284670BD00005C
:101750002DE9F04F80462C482A4B00250321D8F86C
:1017600000200615C7149A4287B04FF400594FF471
:10177000807A4FF4003B24D1026842F48072026008
:10178000006800F48070059001208DE823001F4858
:10179000694600F035FE1E4C1E4904F10C0220463D
:1017A000C4E90015A56082E8E00E656200F0C6FCA1
:1017B00000B1FEE7C8F83840C4F8388007B0BDE88B
:1017C000F08F154B9A42F9D1026842F480620260B0
:1017D0000068009600F480600590CDE901150F487F
:1017E000694600F00DFE0B490D4C60390C488A0526
:1017F00026C484E8E00EA5610C3C00F09FFC0028A4
:10180000D8D0FEE7002001404438024000000240EA
:10181000B0590020706402400022014000140240D0
:10182000105A0020F8B513460A46002104460091DC
:1018300090F83C00012807D0012084F83C00206883
:101840008568ED0702D011E00220F8BD86682E4DB4
:1018500046F0010686602D480068B0FBF5F000EB0D
:10186000400000E0401E00900028FBD12068856801
:10187000ED0746D0256C40F20166B54345F480750E
:1018800025644068400505D5206C20F4005040F4E4
:1018900080502064206CC00404D5606C20F00600E9
:1018A000606400E061646FF0220084F83C10A56B76
:1018B0001749E963A56B17492964A56B1649E964C3
:1018C000216808602068416841F0806141602068BB
:1018D000816841F4807181602168A06B4C3100F017
:1018E0009DFC0E49D1F80403C006206801D088424F
:1018F00007D1816811F0405F03D1816841F08041D8
:1019000081600020F8BD000040420F000000002070
:1019100077040008EF040008D90400080020014003
:1019200010B590F83C100446002001290CD001218C
:1019300084F83C1021688A6822F001028A602168DC
:101940008A68D20702D013E0022010BD886820F414
:1019500080708860A06B00F0A9FA21684A6822F0C4
:1019600080624A60216C21F4885141F001012164B8
:10197000002184F83C1010BD70477047704770B567
:101980004379012B1AD001244471022303710568A5
:1019900040F6FE76D1E900310B4329689640B14309
:1019A0009340C0260B432B60016896400A68B243FF
:1019B0000A60002304714371184670BD022070BD97
:1019C00070477047704770B5040003D02079002538
:1019D00010B105E0012070BD2046657100F008F8E7
:1019E00002212171012025612071002070BD0000BD
:1019F0002449F0B50546086887B040F0010008604A
:101A0000086800F0010005901E481030026842F09E
:101A100000520260006800F000500590086840F431
:101A20000010086008680026032100F400100590EB
:101A300010208DE843001448694600F0E1FC144C86
:101A40004FF4006011494FF4807C4710402321601F
:101A50008101C4E904702162211DC4E9060C4FF024
:101A60006062204681E84C0000F068FB0022AC6018
:101A700010201146A56301F00BF9102001F0FDF8CC
:101A800007B0F0BD303802400000024088600240DC
:101A9000A82800202DE9F04104460D461746069877
:101AA00000226179012920D001266671022121716D
:101AB000F5B1E168DFF8C4C0C1F83CC0D4F80CC08F
:101AC0002F49CCF84010D4F80CC02E49CCF84C105B
:101AD0002168D1F800C04CF0805CC1F800C090B320
:101AE000042834D0082837D134E00220BDE8F08142
:101AF000A168DFF894C0C1F83CC0D4F808C02349FD
:101B0000CCF84010D4F808C02149CCF84C1021681A
:101B1000D1F800C04CF4805CC1F800C020B10428AA
:101B200005D0082808D105E02268083204E02268C0
:101B30000C3201E0226810322068016841F4005143
:101B40000160A0680EE0FFE72268143204E022681A
:101B5000183201E022681C322068016841F000510F
:101B60000160E068394600F059FB20680022AE4071
:101B700001683143016010466271B7E72112000825
:101B80006B120008491200081112000861120008C7
:101B90003112000870B5044600684FF480520125E8
:101BA0008A400368002905FA01F123EA0203036071
:101BB0002068026822EA0102026007D0D4F80C0013
:101BC00000F074F920B10421217170BDA068F7E71D
:101BD000257170BD2DE9F04104460068016821F0CF
:101BE0000501091D016000F001FD002605464FF4C6
:101BF0007A770FE000F0FAFC401BB8420AD9E16B9B
:101C0000032084F8386041F02001E16384F8390052
:101C1000BDE8F08120680068C007EBD12068012191
:101C2000026822F40C52026084F83910002084F813
:101C30003860EDE7F8B504461D46DDE9063094F856
:101C40003860012E18D0012784F83870022684F8F5
:101C50003960266872612A4600902046FFF724FB0F
:101C60002068016841F40C5101602068016841F06E
:101C7000010101600020F8BD0220F8BD2DE9F0410E
:101C8000044600680129016800F1240541F00401BF
:101C9000016001D125681C3500F0A8FC002706462C
:101CA0004FF47A7810E000BF00F0A0FC801B4045A4
:101CB0000AD9E16B032084F8387041F02001E16318
:101CC00084F83900BDE8F08128688006ECD42068EB
:101CD0000121026822F46452026084F83910002065
:101CE00084F83870EEE70000F0B590F8384000EB6B
:101CF00001121832012C4FF440332BD0012680F80A
:101D00003860022480F8394093FAA3F7234CD2E9D3
:101D10000135B7FA87F7BD401D430A2B1CD0092BAC
:101D20001AD04FF07F47D36897FAA7F7B7FA87F72B
:101D3000BB402B430029016812D0CD69A5431D4348
:101D4000CD61016813680B6151680A291AD009290D
:101D500018D01CE00220F0BDD36803F07F43E8E711
:101D60004D6AA5431D434D62016813688B6151683C
:101D70000A2901D009290AD1D168026821F07F41DE
:101D8000916204E0D168026821F07F411162002174
:101D900080F8396080F838100846F0BD0F0003FF66
:101DA00010B5040011D019480068000217D520684A
:101DB0000168C90703D02046FFF70CFF04E0416A21
:101DC000890604D5002106E048B1012010BDC06994
:101DD000800604D501212046FFF750FFF4E7204696
:101DE00000F043F82168002008602168086121683C
:101DF00088612168C8612168486221684863E0639E
:101E000084F8390084F8380010BD000030380240F2
:101E100070B5040004D094F83900002510B106E034
:101E2000012070BD204684F8385000F01FF80220D1
:101E300084F83900D4E900030121026822F4403219
:101E40001A4302602068A368426B22F007021A431B
:101E500042632068E368026C6FF30D021A43026468
:101E6000E56384F83910002070BD70477047F8B5FD
:101E70000446069894F83850012D15D0012684F8B0
:101E80003860022584F8395000902046FFF70CFA9C
:101E90002068016841F40C5101602068016841F03C
:101EA000010101600020F8BD0220F8BD2DE9F041DC
:101EB000876D044600F09AFB064694F8350000252D
:101EC000022806D080206065012084F83450BDE8E7
:101ED000F0812068016821F01601016020684169E5
:101EE00021F080014161206C08B9A06C20B120680C
:101EF000016821F0080101602068016821F00101FA
:101F000001600CE000F072FB801B052807D920213E
:101F10006165032084F8345084F83500D7E72068E1
:101F20000068C007EED194F85C203F20012190406A
:101F3000B86084F8345084F835100020C7E770B5D5
:101F4000040025D094F83500022820D02068002510
:101F50002122016821F001010160206805602068EC
:101F60004560206885602068C5602068056120683C
:101F700042612046FFF7F4F994F85C203F2191403C
:101F80008160656584F83550002084F8345070BD58
:101F9000012070BD2DE9F84304464FF00008654B61
:101FA0000820CDF800804FF41652A56D94F85C100F
:101FB0001B682E68B3FBF2F700FA01F131420FD033
:101FC00021680A6852070BD50A6822F004020A60E9
:101FD00094F85C108840A860606D40F00100606576
:101FE00094F85C1054488840304208D02168496910
:101FF000090604D5A860606D40F0020060654E4897
:1020000094F85C10C01C8840304208D021680968F0
:10201000890704D5A860606D40F00400606594F8FD
:102020005C1010208840304218D0216809680907E8
:1020300014D5A86020680168490304D5006800032E
:1020400008D5A16C07E00168C90503D4016821F037
:1020500008010160216C09B12046884794F85C10A2
:1020600020204FF001098840304231D021680968B2
:10207000C9062DD5A86094F83500052820680168A8
:1020800006D0490347D5006800031DD4616C1CE0ED
:1020900021F0160101602068416921F08001416151
:1020A000206C08B9A06C20B12068016821F00801FB
:1020B000016094F85C303F229A40AA6084F8348032
:1020C00084F83590216D1FE0E16B09B12046884707
:1020D000606D00282BD0606DC00714D0052084F8F7
:1020E00035002068016821F0010101600098401C62
:1020F0000090B84203D820680068C007F6D184F881
:10210000348084F83590E16C002910D001B020466D
:10211000BDE8F04308470168C905D5D4036823F03A
:102120001003036084F8348084F83590CCE7BDE870
:10213000F883000000000020010080002DE9F04736
:10214000044600F053FA054664B14FF0000984F8E4
:102150003490022184F835102068016821F00101D3
:1021600001600EE00120BDE8F08700BF00F03EFAFC
:10217000401B052805D920216165032084F835001E
:10218000F1E720680068C007F0D1D4E90020D4E965
:102190000251D4E9043C284304F1180519430843CB
:1021A000116895E8E00140EA0C001B4B28431940F8
:1021B00040EA060040EA0700B8F1040F40EA0100D7
:1021C00003D1D4E90B13194308431060206801269A
:1021D000656A4069042D20F0070045EA00050AD130
:1021E000A06A05432046FFF7CFF820B14020606584
:1021F00084F83560B6E7206845612046FFF7B0F8FF
:1022000094F85C303F229A408260C4F8549084F87D
:1022100035600020A7E700003F8010F02DE9F04175
:10222000044690F8340000250128A66D0ED094F8DD
:1022300035C00127002084F83470BCF1010F07D0AD
:10224000022584F834002846BDE8F0810220FBE72F
:10225000022784F8357060652046FFF7BFF894F8D0
:102260005C103F208840B0602068016841F0160192
:1022700001602068416941F080014161206C20B11A
:102280002068016841F0080101602068016841F0A0
:1022900001010160D7E731B500F0A8F9044600F06C
:1022A000A5F90099001B8842F9D338BD2DE9F04FFC
:1022B000DFF81CE1894600214FF0010A4FF00F0BB7
:1022C0000AFA01F409EA0403A3427BD10768032553
:1022D0004E00CA08B540AF4307604E0700EB8202CC
:1022E000D2F820C04FEAD6680BFA08F72CEA070CA0
:1022F000C2F820C08F0721F00308D0F808C03F0FB4
:1023000008EB0E06DFF8CC800BFA07F22CEA050C7E
:10231000C0F808C0D0F804C040452CEA040CC0F84E
:1023200004C0C46824EA0504C460D6F8084802EA78
:10233000040401D100252DE0274DA84201D101253B
:1023400028E0264DA84201D1022523E0244DA842D1
:1023500001D103251EE0234DA84201D1042519E037
:10236000214DA84201D1052514E0204DA84201D1FC
:1023700006250FE01E4DA84201D107250AE01D4D9C
:10238000A84201D1082505E01B4DA84201D109252D
:1023900000E00A25BD40A54214D1D6F80858174CD4
:1023A000271D9543C6F8085826683A1D151D9E43FB
:1023B00026603C689C433C6014689C4314602A6817
:1023C0009A432A60491C1029FFF47AAFBDE8F08FC8
:1023D00000300140000002400004024000080240BA
:1023E000000C02400010024000140240001802409D
:1023F000001C02400020024000240240003C01403A
:102400002DE9F84FDFF89CE100224FF001084FF072
:10241000030B4FF00F0A00BF0B6808FA02F42340C9
:10242000A34271D14D68022D01D0122D0FD1D508D4
:102430000E69570700EB8505A9462D6AFF0E0AFABB
:1024400007FCBE4025EA0C052E43C9F820600F7931
:10245000550006680BFA05FC07F0030726EA0C0690
:10246000AF40374307604E68012E05D0022E03D0DF
:10247000112E01D0122E0ED18668CF6826EA0C06E6
:10248000AF403743876046680F79A643C7F300170C
:10249000974037434760C4688E6824EA0C04AE4016
:1024A0002643C6604C68E40075D53F4C256845F46A
:1024B00080452560246822F00306950704F48044D3
:1024C00000943A4C2D0F2644D6F80848DFF8E0C0B7
:1024D0000AFA05F7604524EA070401D100272EE037
:1024E000344FB84201D1012729E0334FB84201D11E
:1024F000022724E0314FB84201D103271FE0304FBB
:10250000B84202D104271AE045E02E4FB84201D16B
:10251000052714E02C4FB84201D106270FE02B4FBE
:10252000B84201D107270AE0294FB84201D1082754
:1025300005E0284FB84201D1092700E00A27AF4043
:1025400027437546C6F808784E68DEF80040F60363
:1025500024EA030400D51C43124E2C60361D4D683E
:102560003468AD0324EA030400D51C430D4F3460E6
:1025700008374D683C68ED0224EA030400D51C438B
:10258000084D3C600C354E682C68B60224EA030402
:1025900000D51C432C60521C102AFFF43DAFBDE84F
:1025A000F88F0000003C01404438024000300140F8
:1025B000000002400004024000080240000C0240FB
:1025C000001002400014024000180240001C0240AB
:1025D000002002400024024042694A4042617047A4
:1025E0000AB1816170470904FBE7000001480068F7
:1025F00070470000D400002010B5040014D024203F
:1026000084F841002068016821F001010160204642
:1026100000F0D6F90020606484F84100206384F85B
:10262000420084F8400010BD012010BD90F8410028
:102630007047000070B5040004D094F841000025F4
:1026400010B106E0012070BD204684F8405000F033
:10265000B8F9242084F841002068016821F00101C4
:102660000160D4E9001020F0706008612068816882
:1026700021F400418160E06821680128A06806D04B
:1026800040F404408860E068022803D006E040F48B
:102690000040F7E721684FF400604860202120687F
:1026A000114A4368134343602068C26822F4004221
:1026B000C26054F8106B0DCC104340EA0320F06068
:1026C00054F81C3CD4E900021043186054F81C0D67
:1026D000026842F001020260656484F841102563DB
:1026E00084F84250002070BD008000022DE9FF4FA9
:1026F00083B0044690F841009A469346DDE910877E
:10270000DDF84890202875D15FEA080073D0002FCB
:1027100071D094F8400001286CD0012084F840006A
:10272000FFF764FF0122064619230090D1032046DB
:1027300001F0B2FE002875D10025C4F824802221C2
:1027400084F84110402084F8420065646785534650
:1027500065635A4604992046CDE9009601F01CFEB7
:1027600028B1606C84F8405004285FD05AE0618D35
:10277000FF274FF41050FF294FF080784FF0007A78
:1027800004D927853A464346009005E0618D5346BB
:102790002185009094F828202046049901F06AFED3
:1027A00000224B4604212046009601F075FEC8BB6E
:1027B0002168606A496A421C62620170208D401E75
:1027C0000004000C2085618DA1F1010161851DD1FE
:1027D000608DD8B100224B4680212046009601F042
:1027E0005BFEF8B9608DFF2806D927853A46434637
:1027F000009507E02CE019E0608D53462085009598
:1028000094F828202046049901F034FE608D0028B9
:10281000C6D132464946204601F067FE40B1606CA1
:10282000042803D0032007B0BDE8F08F0120FAE7A9
:1028300020682021074AC161206843681340436033
:1028400084F8411084F84250002084F84050EAE7B0
:102850000220E8E700E800FE2DE9FF4F83B00446C0
:1028600090F841009A469346DDE91087DDF84890DC
:10287000202870D15FEA08006ED0002F6CD094F849
:102880004000012867D0012084F84000FFF7AEFE29
:102890000122064619230090D103204601F0FCFDD9
:1028A000002854D10025C4F82480212184F8411047
:1028B000402084F8420065646785534665635A4644
:1028C00004992046CDE9009601F09DFD28B1606C89
:1028D00084F8405004286CD039E0608DFF274FF019
:1028E0008078FF284FF0007A04D927853A4643467E
:1028F000009505E0608D53462085009594F82820CA
:102900002046049901F0B6FD32464946204601F0C2
:1029100014FE18B1606C04284BD018E0606A411CAA
:102920006162216800788862608D401E6085208D1C
:10293000401E0004000C208521D1608DF8B10022DA
:102940004B4680212046009601F0A6FD28B10320C9
:1029500007B0BDE8F08F2EE02BE0608DFF2804D992
:1029600027853A464346009505E0608D534620850D
:10297000009594F828202046049901F07BFD608D95
:102980000028C1D132464946204601F0AEFD00285C
:10299000C0D120682021094AC161206843681340E2
:1029A000436084F8411084F84250002084F840507D
:1029B000CEE70120CCE70220CAE7000000E800FED5
:1029C0007047704702480168491C01607047000069
:1029D000D4000020032010B500F07AF9002000F0A8
:1029E00005F800F013F9002010BD0000084910B5EB
:1029F00004464FF47A700968B1FBF0F001F074FA04
:102A000000222146501E00F043F9002010BD0000B6
:102A1000000000202DE9F041044690F8A000164681
:102A20000F4601281DD0012584F8A050022084F80B
:102A3000A10006EB860000EBC600342204EB800008
:102A40003830FDF752FC32463946204601F0BCFED4
:102A5000216800204D6284F8A15084F8A000BDE8F0
:102A6000F0810220FBE790F8A10070472DE9F041CA
:102A7000040004D094F8A100002518B107E001205B
:102A8000BDE8F081204684F8A05000F06FF8364889
:102A9000022184F8A110012202CC8B6923F070433B
:102AA0008B6194E84A001943E3681E4354F8043DDF
:102AB00031439E693143996121688B6803408B6083
:102AC0002168A68AA7698B683B4343EA06438B606B
:102AD0002168CB680340CB602168A38B276ACE684E
:102AE0003E4346EA0346CE6021680B6903400B6112
:102AF0002168A68CA76A0B693B4343EA06430B6136
:102B000021684B6903404B612168A38D266B48699E
:102B1000304340EA03404861236894F8351094F844
:102B20003600DE6A000406F07F46DE62236840EA73
:102B3000012094F83460D96A31430143D962206896
:102B4000416B41F0040141632068416B41F0020197
:102B500041632068816941F001018161C4F8A4509A
:102B600084F8A12000208BE700F800F070470000F7
:102B7000F0B5154C4378211D0A1D23600378F3B18D
:102B800043680B60057BC67A817A437B2D07847B83
:102B900045EA0665C77B90F809C0067A90F800E020
:102BA00045EAC14040EA834040EA444040EA0740E9
:102BB00040EA0C2040EA460040EA0E0001E0002016
:102BC00008601060F0BD000098ED00E0BFF35F8F7B
:102BD000044800210368034A23F480330360703201
:102BE0001160704724ED00E0074A40F001000649FB
:102BF00070321060086840F480300860BFF34F8F77
:102C0000BFF36F8F7047000024ED00E0032010B584
:102C100000F05EF800226FF00B00114600F038F86B
:102C200000226FF00A00114600F032F800226FF027
:102C30000900114600F02CF80022501F114600F048
:102C400027F80022101F114600F022F80022901EE3
:102C5000114600F01DF800220F21BDE81040501E63
:102C600000F016B8410900F01F028900012001F1AF
:102C7000E0219040C1F880017047410900F01F0237
:102C80008900012001F1E0219040C1F80001704766
:102C90000E4BF0B41B680D46C3F30223C3F10706C5
:102CA000042E00D90426191D072901D2002300E0B3
:102CB000DB1E012404FA06F19C40491E2940641ED3
:102CC000994014402143F0BC01F066BE0CED00E0D9
:102CD000064900F0070210B54FF6FF040868044BE0
:102CE000204040EA02201843086010BD0CED00E0CF
:102CF0000000FA051848F8B5016841F080510160FC
:102D00000068164C00F080500090206840F480303D
:102D10002060FFF76BFC4FF47A76054605E000BFB4
:102D2000FFF764FC401BB0420FD86068C003F7D5C2
:102D3000206840F400302060FFF758FC054606E0AC
:102D4000FFF754FC401BB04201D90320F8BD606876
:102D50008003F5D50020F8BD4038024000700040E7
:102D6000F8B500250446FFF741FC064694F8390003
:102D7000800731D5002084F83800206801684907B1
:102D80000BD5016821F004010160606BFFF78EF83C
:102D900018B1E06B40F00400E0632068016841F086
:102DA00002010160206C012202213346009020467E
:102DB00001F080FF05000FD121680220C8600022C9
:102DC000206C202133460090204601F073FF05005F
:102DD00002D1012084F839002846F8BD2DE9F84FCA
:102DE0001E4615468A460446FFF700FC814694F8C5
:102DF000380001280ED001274FF0000884F8387001
:102E000094F83900012807D05FF0020084F8388078
:102E1000BDE8F88F0220FBE74221C4F83C8084F82B
:102E20003910002220214B462046009601F042FF37
:102E30000028EBD1216828688862216868684862A8
:102E40002168A868C86220682969026822F44002E3
:102E500042F4800211430160E9684FF000622046AD
:102E6000CAF82810514601F0E3FD01224B46082123
:102E70002046009601F01EFF0028C7D122680821D5
:102E8000D16084F83970C1E72DE9F84F17468B46B9
:102E90000446FFF7ABFB824694F8380001280ED0B9
:102EA00001264FF0000884F8386094F839000128B2
:102EB00007D0022584F838802846BDE8F88F022024
:102EC000FBE74FF00209C4F83C8084F839900022F7
:102ED000202153462046009701F0ECFE0500E9D181
:102EE00000225946204601F0A3FDDBF8240058B922
:102EF0000122534602212046009701F0DBFE050027
:102F0000D8D12168C1F80C9084F83960D2E710B5A7
:102F1000040015D094F83800012813D0012084F85B
:102F200038002068016821F001010160204600F0AE
:102F3000B1F80020E06384F8390084F8380010BD4F
:102F4000012010BD022010BDF8B50446FFF74EFB6E
:102F500007465CB194F83800012809D0012684F8AE
:102F60003860002594F8390020B10BE00120F8BD4D
:102F70000220F8BD84F83850204600F08CF841F269
:102F80008830206420686FF0FF03A168026803EBBB
:102F9000012322F4F85119430160206C0022202102
:102FA0003B460090204601F085FE30BB2268D4E904
:102FB000077C94F804E0E16813683943104F4CEA49
:102FC0000E6EDFF840C03B4041EA0E01194311602C
:102FD0002168D4E90527B4F810E04B683A4303EAC6
:102FE0000C0343EA0E431A434A6021680A6842F020
:102FF00001020A60E56384F8396084F83850F8BD4E
:103000002FFFFF00FEF8E0FF2DE9F8431646884643
:103010000446FFF7EBFA034694F8380001280ED077
:10302000012084F83800002794F83900012808D0DE
:103030005FF0020584F838702846BDE8F883022066
:10304000FBE7206C8221E76384F8391000222021FD
:103050000090204601F02EFE0500EBD1206872683A
:10306000016821F0080111430160706808280AD145
:1030700022681021306810632068C16020680168F0
:1030800041F4801101604FF040624146204601F05A
:10309000CFFCCFE7704770472DE9F84F15460F4634
:1030A0000446FFF7A3FA82462068816994F8383015
:1030B00000F12009012B0DD001264FF0000884F803
:1030C000386094F83920012A06D0022084F838802C
:1030D000BDE8F88F0220FBE7C4F83C80B7B322229A
:1030E00084F839200269521C62860269521C2286C9
:1030F000E762426922F0406242F0806242612068E9
:1031000081610DE00621204601F0D4FDD8B999F87F
:103110000020E06A411CE1620270608E401E608601
:10312000608E53464FF0010200950028EAD14FF01F
:103130000201204601F0BEFD28B921680220C860C6
:103140002046FFF70DFE84F83960BFE7FFE7E16B2B
:10315000012041F00801E163B8E700002DE9F84FD4
:1031600015460F460446FFF741FA94F83810824698
:103170002068012900F120090ED001264FF0000837
:1031800084F8386094F83910012907D05FF0020004
:1031900084F83880BDE8F88F0220FBE7C4F83C8053
:1031A00097B3122184F839100169491C61850169BE
:1031B000491C21856762416921F0406141610DE050
:1031C0000421204601F076FDD8B9606A411C616295
:1031D000017889F80010608D401E6085608D53462F
:1031E0004FF0010200950028EAD14FF0020120467D
:1031F00001F060FD28B921680220C8602046FFF771
:10320000AFFD84F83960C3E7FFE7E16B012041F0CF
:103210000801E163BCE700002DE9F84F044600789F
:10322000DFF828844FF000063546C0070ED0D8F8E6
:10323000001021F40001C8F80010D8F80010626BEB
:103240001143C8F80010606B00B901262068000324
:1032500010D5FE48E26B8430016821F4401111431F
:103260000160E06BB0F5801F01D010B102E00126D3
:1032700000E001252068C00210D5F448226C84309B
:10328000016821F4400111430160206CB0F5800F0A
:1032900001D010B102E0012600E001252068C10143
:1032A00000D50126800659D5E8483830016841F03C
:1032B000805101600068DFF8989300F08050009022
:1032C000D9F8001041F48071C9F80010FFF78EF9A9
:1032D000074604E0FFF78AF9C01B64287ED8D9F8B6
:1032E0000000C005F6D5D94F6837386810F4407033
:1032F00023D0218E01F4407181421ED03868396894
:1033000020F4407041F480313960396821F4803113
:10331000396038603868C0070FD0FFF767F9814619
:1033200041F2883A06E000BFFFF760F9A0EB09011F
:103330005145D3D838688007F6D5206BC0F30121FA
:1033400003297CD0D8F8001021F4F811C8F8001037
:10335000218E3868C1F30B01084338602078C0061D
:1033600009D5BA488430016821F080710160016894
:10337000A26B114301602188B4488830490405D507
:10338000626E016821F44031114301602188090413
:1033900005D5A26E016821F4402111430160216826
:1033A000C90305D5E26E016821F4401111430160A3
:1033B0002168890305D5226F016821F4400111437A
:1033C00001602178490605D5626C016821F003018E
:1033D000114301602178090607D500E001E1A26CE4
:1033E000016821F00C01114301602188C90505D550
:1033F000E26C016821F030011143016021888905E8
:1034000005D5226D016821F0C001114301602188BA
:10341000490505D5626D016821F4407111430160D1
:103420002188090505D5A26D016821F44061114389
:1034300001602188C90407D5E26D016800E023E03E
:1034400021F44051114301602188890405D5226E81
:10345000016821F44041114301602168490205D50A
:10346000A26F016821F08061114301602168890227
:1034700015D5E26F016821F0006111430160E16F31
:10348000B1F1006F0AD00AE0724AD8F8003010405B
:1034900023F4F8120243C8F8002059E701252168F7
:1034A0000A0700D50125490305D5626F016821F09F
:1034B0004071114301602168090206D5D4F88020CB
:1034C000016821F0805111430160012E4FF4403B0F
:1034D0004FF070694FF0E04A03D02068B0F1007FF0
:1034E0007ED15A4E083E306820F080603060FFF791
:1034F0007DF8074605E000BFFFF778F8C01B642899
:103500006FD85248083800680001F5D42078DFF8F9
:103510003CE1C0070EF17C0E33D0606B88BBDEF857
:1035200000209BFAABF7DEF8000099FAA9FCB7FA85
:1035300087F847F6C07602F44032616896FAA6F73B
:1035400022FA08F2BCFA8CF8B7FA87FC9BFAABF6C1
:1035500000F0706001FA0CF1B6FA86F699FAA9F754
:1035600020FA08F0B2409AFAAAFCA668B7FA87F7E0
:103570001143B840BCFA8CF2014396403143CEF877
:1035800000102068010303D5E16BB1F5801F05D061
:10359000C00241D5206CB0F5800F3DD1DEF80000AF
:1035A0009BFAABF7DEF8003047F6C07600F4403007
:1035B000B7FA87FC616896FAA6F620FA0CF099FA39
:1035C000A9FC9BFAABF7BCFA8CF8B6FA86F69AFA25
:1035D000AAFCB7FA87F7B140B840BCFA8CFC01E00E
:1035E0008CE006E1E6689AFAAAF203F0E043B2FA48
:1035F00082F7164A06FA08F623FA0CF301438432DE
:10360000BB4031431943CEF800101068616A20F0C6
:103610001F00491E084310602068C00139D5DEF83C
:10362000001099FAA9F0DEF8003047F6C0769AFA51
:10363000AAFC9BFAABF796FAA6F601F07061BCFA09
:103640008CFCB7FA87F7B0FA80F005E00838024042
:1036500000700040FFFCFF0FC1400091B6FA86F8F1
:10366000216999FAA9F6606803F0E042B6FA86F695
:10367000B94000FA08F0084300999AFAAAF722FA2A
:103680000CF2B140B7FA87F60843B2401043CEF8C7
:1036900000002068800120D547F6C07004F10801C1
:1036A00090FAA0F260689BFAABFCB2FA82F346C9CA
:1036B000BCFA8CFC984099FAA9F806FA0CF69AFA2A
:1036C000AAF7B8FA88FC304302FA0CF2B7FA87F688
:1036D0001043B1400843CEF800007B4E306840F004
:1036E00080603060FEF782FF074604E0FEF77EFF51
:1036F000C01B64287DD830680001F7D5002D79D033
:10370000714D286820F080502860FEF76FFF064654
:1037100005E000BFFEF76AFF801B642869D86A488D
:103720000068C0438000F5D56748216888300A03E7
:1037300001D5E26B1AB1C9023CD5216CD1BB02683C
:103740009BFAABF647F6C071B6FA86F7066802F444
:10375000403291FAA1FC6169FA4099FAA9F7BCFAE2
:103760008CFC9BFAABF501FA0CF1B7FA87F89AFAE0
:10377000AAF7B5FA85FCA56906F0E04602FA0CF254
:10378000B7FA87F79AFAAAF3FE4011434E4A05FAB0
:1037900008F5B3FA83F38C329E402943314301602C
:1037A0006FF0FF071168A36A21F4F85107EB0323B8
:1037B000194311602168890235D5E16FB1F1006FBD
:1037C00031D1016899FAA9F2056847F6C07601F08F
:1037D000706196FAA6F7B2FA82F29AFAAAF69BFA02
:1037E000ABFC21FA02F8216AB6FA86F6BCFA8CFC28
:1037F00001E060E066E06269B7FA87F701FA0CF170
:1038000099FAA9FCBA4005F0E0459AFAAAF3BCFA85
:103810008CF7F5400A4308FA07F1B3FA83F30A4339
:103820009D402A4302602178090736D50168026865
:103830009BFAABF799FAA9FC47F6C07302F4403241
:10384000214DB7FA87F893FAA3F7636922FA08F2D1
:10385000BCFA8CF8B7FA87FC9BFAABF601F0706102
:1038600003FA0CF3B6FA86F621FA08F199FAA9F7E9
:10387000B2409AFAAAFCE669B7FA87F78C35134387
:10388000B940BCFA8CF20B4396403343036028687E
:10389000E16A20F44030084328600B4C206840F077
:1038A00080502060FEF7A2FE054607E0FEF79EFE70
:1038B000401B642802D90320BDE8F88F2068C0436C
:1038C0008000F3D40020F7E7003802402DE9F047EC
:1038D000DFF84C8105460E46D8F8000000F00F00D6
:1038E000B0420CD2D8F8001021F00F013143C8F8D3
:1038F0000010D8F8000000F00F00B04265D1287821
:10390000484C800705D5A968206820F0F0000843DE
:1039100020602878C00747D04249686808390128E4
:1039200016D00968022816D0890700294DDA2168C7
:1039300021F0030101432160FEF758FE6968074644
:1039400041F2883001290FD00229814619D027E0A1
:1039500009688903E9E78901E7E700BFFEF746FE4A
:10396000C11B494501D918E081462068C0F3810098
:103970000128F3D118E000BFFEF738FEC11B49450E
:103980000BD82068C0F381000228F5D10CE000BFFD
:10399000FEF72CFEC11B494502D90320BDE8F08784
:1039A000206810F00C0FF3D1D8F80010404601F059
:1039B0000F01B1420BD9016821F00F0131430160C1
:1039C000006800F00F00B04201D00120E6E728783F
:1039D000400705D5E968206820F4E05008432060DE
:1039E0002878000706D52869216821F4604141EA5A
:1039F000C000206000F04CF82168F02292FAA2F298
:103A000001F0F001B2FA82F2D140074A515CC8409D
:103A1000064908600020FEF7E9FF0020BEE700002D
:103A2000003C0240083802406058010800000020B5
:103A300008484FF4E052016892FAA2F2064801F4F5
:103A4000E051B2FA82F2D140044A0068515CC840A9
:103A5000704700000838024000000020705801083C
:103A600008484FF46042016892FAA2F2064801F455
:103A70006041B2FA82F2D140044A0068515CC84009
:103A8000704700000838024000000020705801080C
:103A90001D4930B51D48096811F00C011AD01C4BA6
:103AA000042916D0082915D1174947F6C072091FF5
:103AB0000C680D6804F03F046D020CD50D68B3FB73
:103AC000F4F092FAA2F31540B3FA83F2D5406843BA
:103AD0000BE0184630BD0B68B0FBF4F092FAA2F48C
:103AE0001340B4FA84F2D340584309684FF440328B
:103AF00092FAA2F201F44031B2FA82F2D140491CAA
:103B00004900B0FBF1F030BD083802400024F40059
:103B100040787D012DE9F84FCB4F05460078A7F19D
:103B20000408A8F10404C0074AD03868C0F3810033
:103B3000012808D03868C0F3810002280AD1D8F8DB
:103B40000000400206D52068800339D56868002847
:103B50007AD035E06868B0F5803F0BD010B1B0F591
:103B6000A02F11D0206820F480302060206820F43D
:103B7000802002E0206840F480302060686890B1C6
:103B8000FEF734FD06460AE0206840F480202060FD
:103B9000F0E700BFFEF72AFD801B642875D8206877
:103BA0008003F7D50CE0FEF721FD064605E000BFD7
:103BB000FEF71CFD801B6428F0D820688003F7D432
:103BC0002878800750D538684FF0F80910F00C0FAE
:103BD00008D03868C0F38100022815D1D8F8000059
:103BE000400211D42068800702D5E86801282BD153
:103BF0002969226899FAA9F0B0FA80F0814022F090
:103C0000F800084320602FE0E868002820681CD0F6
:103C100040F001002060FEF7E9FC064605E000BF29
:103C2000FEF7E4FC801B0228B8D820688007F7D58F
:103C30002869226899FAA9F1B1FA81F1884022F045
:103C4000F801014321600FE0FBE020F0010020605B
:103C5000FEF7CCFC064604E0FEF7C8FC801B0228F9
:103C600013D820688007F7D42878000729D576482C
:103C700069696C3000298146016811D041F0010169
:103C80000160FEF7B3FC064605E082E0FEF7AEFCFD
:103C9000801B02287DD8D9F800008007F6D510E0F7
:103CA00021F001010160FEF7A1FC064605E000BF1E
:103CB000FEF79CFC801B02286BD8D9F80000800717
:103CC000F6D42878400756D55F483830016841F06F
:103CD000805101600068DFF8749100F0805000901E
:103CE000D9F8001041F48071C9F80010FEF77EFC8D
:103CF000064604E0FEF77AFC801B642849D8D9F810
:103D00000000C005F6D5504EA868683601280AD0D4
:103D100008B1052813D0306820F001003060306809
:103D200020F0040002E0306840F001003060A86834
:103D300041F2883A90B1FEF759FC81460AE03068BA
:103D400040F004003060EEE7FEF750FCA0EB090104
:103D500051456ED830688007F6D50CE0FEF746FC7A
:103D6000814605E0FEF742FCA0EB0901514560D811
:103D700030688007F6D4A869F0B33968C1F38101CF
:103D800002295ED00228206820F08070206005D0D3
:103D900000E04EE0FEF72AFC05464DE0FEF726FC6B
:103DA000064604E0FEF722FC801B022841D820686A
:103DB0008001F7D447F6C0704FF0FF36D5E90913FC
:103DC00090FAA0F24FF44037B2FA82F297FAA7F7CE
:103DD00006EB53039140D5E907064FF0706CEA6A91
:103DE000B7FA87F79CFAACF5BB4019433043B5FAF4
:103DF00085F308439A4000E021E0104340F0005072
:103E0000C8F80000206840F080702060FEF7EEFBEC
:103E1000054604E0FEF7EAFB401B022809D82068AB
:103E20008001F7D50BE000BFFEF7E0FB401B022846
:103E300002D90320BDE8F88F20688001F4D4002067
:103E4000F8E70120F6E70000083802400070004063
:103E500070B504000D4603D094F82C0010B107E0B3
:103E6000012070BD002084F82D00204600F011F8DC
:103E7000022084F82C002068211DFDF7C3FAD4E944
:103E800000022946FDF718FB012084F82C000020D1
:103E900070BD704710B5044690F82C00022809D078
:103EA000022084F82C002068FDF7DBFA012084F85A
:103EB0002C00002010BD000070B5044690F82C00C6
:103EC0000D4602280DD0022084F82C002068FDF752
:103ED000CEFA2868022805D05FF0010084F82C0093
:103EE000002070BD0520F9E7401EB0F1807F10B5BD
:103EF00001D3012010BD4FF0E02460610F21601755
:103F000000F04AFD0020A0610721216110BD0000E2
:103F100070B590F83820012A1FD0012280F838208F
:103F200002680F4C5368A242956802D00D4CA24221
:103F300003D14C6823F4700323430C68896800267E
:103F400023F070031C43546025F080050268294368
:103F5000916080F83860304670BD022070BD00006E
:103F6000000001400004014010B5040003D094F8A3
:103F7000390010B104E0012010BD204600F00CF81B
:103F8000022084F839002068211D00F053FF012031
:103F900084F83900002010BD7047022180F83910E4
:103FA000012201680B6843F001030B6080F839209F
:103FB0000020704770B5044690F83800012817D0EB
:103FC0003A4E012584F83850022084F839002268DE
:103FD0009068304020F47F4090600868502839D0C5
:103FE0000DDC20285BD005DC98B3102843D153E0CA
:103FF000022070BD302855D040283CD141E06028D7
:1040000030D070280CD0B0F5805F03D0B0F5005FE1
:1040100031D112E02068254A70328168114016E0E3
:104020004A682068D1E9021300F071FF21688868AE
:10403000304040F0770088601DE04A682068D1E990
:10404000021300F064FF2068816841F480418160C0
:1040500011E01EE0CA684968206801F08DF8206808
:10406000502106E0CA684968206801F096F8206887
:10407000602100F055FF002084F8395084F83800A2
:1040800070BDCA684968206801F076F82068402150
:10409000EFE720680021ECE720681021E9E72068BD
:1040A0002021E6E720683021E3E7000088FFFEFFDB
:1040B00070B5044690F8380001280ED0012584F828
:1040C0003850022084F839000C2A19D007DC5AB184
:1040D000042A0DD0082A1ED10EE0022070BD102A3D
:1040E00012D0142A17D113E0206800F021FF12E04B
:1040F000206800F051FF0EE0206800F083FF0AE026
:10410000206800F0B5FF06E0206800F0DDFF02E067
:10411000206801F005F8002084F8395084F8380050
:1041200070BD10B5040003D094F8390010B107E059
:10413000012010BD002084F83800204600F00CF863
:10414000022084F839002068211D00F073FE012050
:1041500084F83900002010BD7047000010B501221E
:104160000446006800F0C8FE08492068884202D072
:104170000749884203D1416C41F400414164206801
:10418000016841F001010160002010BD0000014004
:104190000004014010B5040003D094F8690010B188
:1041A00007E0012010BD002084F86800204600F0E0
:1041B00027F8242084F869002068016821F00101B3
:1041C0000160204601F0BAF80128EBD0606A10B116
:1041D000204601F021F82068416821F490414160B7
:1041E0002068816821F02A0181602068016841F01F
:1041F000010101602046BDE8104001F071B80000E7
:1042000010B5006886B00C49884213D10B4801688C
:1042100041F40031016000680221012200F4003005
:1042200005906020032307248DE81F000448694699
:10423000FEF7E6F806B010BD0044004040380240EA
:10424000000C02402DE9F843044690F869001F462F
:1042500016460D4620284ED1C5B1BEB194F868006F
:10426000012848D0012284F8682021214FF000085D
:10427000C4F86C8084F869105034FEF7B7F92680D2
:1042800081466680503C4FF4805619E00120BDE81D
:10429000F88300BFB4F85200401EA4F85200002278
:1042A0004B4680212046009701F074F9A0B9A06820
:1042B000B04201D1206988B115F8010B21688862EC
:1042C000B4F852000028E5D100224B464021204698
:1042D000009701F05FF938B10320D8E735F8020BF9
:1042E0002168C0F30800EAE7202184F86910002063
:1042F00084F86880CBE70220C9E701688A69D24365
:10430000920701D400228A6200688169C943C90703
:1043100003D0816941F00101816170472DE9F041CD
:104320000446006890460E468069C043C0062FD4FC
:104330000025202720688069C043800611D5701CA5
:10434000F8D02EB1FEF752F9A0EB0800B042F1D937
:1043500084F8417084F84250032084F84050BDE84E
:10436000F08121681020C8612068C7612046FFF7EE
:10437000C4FF20680422074943680B40436062641D
:1043800084F8417084F84250012084F84050E6E7F8
:104390000020E4E700E800FE2DE9F8431746044654
:1043A0004FF400501E46DAB2009000232046DDE9AB
:1043B000089800F05FF842464946204600F0BDF8F4
:1043C00018B1606C04281CD018E0012EFDB209D091
:1043D0002068390A816242464946204600F0ADF81D
:1043E0000028EED120688562002240214B462046FD
:1043F000CDF8008000F050F8002800D00320BDE880
:10440000F8830120FBE72DE9F843044617464FF4F3
:1044100000501E46DAB20090C3022046DDE908983B
:1044200000F028F842464946204600F086F818B1C8
:10443000606C04281CD018E0012EFDB209D0206861
:10444000390A816242464946204600F076F8002843
:10445000EED120688562002280214B462046CDF8AF
:10446000008000F019F8002800D00320BDE8F88390
:104470000120FBE730B5C1F30901064D41EA0241D5
:104480000268039C1943506821432840014351604E
:1044900030BD0000009800FC2DE9F0411D46174694
:1044A0000E460446DDF8188013E0681C11D02DB1CB
:1044B000FEF79CF8A0EB0800A8420AD900202021B2
:1044C00084F8411084F8420084F840000320BDE8DD
:1044D000F0812068806936EA000004D00020B842EC
:1044E000E3D00020F3E70120F9E770B516460D464A
:1044F00004461BE0324629462046FFF70FFF08B16D
:10450000012070BD25B1FEF771F8801BA8420DD9BE
:10451000626C002084F84000202142F02002626496
:1045200084F8411084F84200032070BD206880693F
:10453000C0438006DED4002070BD70B516460D461F
:1045400004461DE0324629462046FFF7E7FE08B143
:10455000012070BD681C13D025B1FEF747F8801B01
:10456000A8420DD9626C002084F84000202142F05E
:104570002002626484F8411084F84200032070BD78
:1045800020688069C0438007DCD4002070BD10B56E
:104590000446FEF731F82046BDE81040AFF3008036
:1045A00010B50446FEF742F8002818D10C488442A2
:1045B00001D10C4800E00C4801210C4A2060002089
:1045C0006260C4E9020120616061E061206220460E
:1045D00000F00EF82046BDE81040FEF72BB810BDE5
:1045E00008250020005C0040005400403227914024
:1045F000F0B542490022424B87B0424D4FF48076DD
:10460000414C9842D1F800C04FF012004FF0020325
:104610004FF0040737D14CF0800CC1F800C0096896
:104620000DF1080C01F0800105918021CDE9001009
:104630008CE88C00354F69463846FDF7E1FE694647
:1046400038460096FDF7DCFE286840F4000028603C
:10465000286800F400000590206840F40000206005
:10466000206820F40000206000220F214820FEF77F
:104670000FFB4820FEF701FB00220F214920FEF727
:1046800007FB492035E04CF0020CC1F800C0096876
:10469000CDE9022301F00201CDE90471CDE900600A
:1046A0001B4E69463046FDF7ABFE7015694600901B
:1046B0003046FDF7A5FE286840F400102860286801
:1046C00000F400100590206840F40010206020687D
:1046D00020F40010206000220F211F20FEF7D8FADE
:1046E0001F20FEF7CAFA00220F212020FEF7D0FA81
:1046F0002020FEF7C2FA07B0F0BD000030380240BB
:10470000082500204038024020380240001C0240AA
:1047100000040240FEB50D4606464FF47A74DDE90A
:1047200008018DE8130029463046FDF7DFFF04003D
:1047300003D029463046FFF72AFF2046FEBDFEB5CE
:104740000D4606464FF47A74DDE908018DE8130042
:1047500029463046FEF780F8040003D0294630464B
:10476000FFF715FF2046FEBD144810B50068C007CE
:104770001AD0124B0121124A1B1D124C181D196030
:10478000118803688B4210D151880160206890F82D
:104790006610491C80F8661005F0F6FB206808F0EA
:1047A00029FA002009F056FA10BD0160002009F036
:1047B00065FA206801688969884710BD386801403A
:1047C0001A0000206C0100202DE9FE4F8146006890
:1047D000882493468D888C2204EBCB178A46C368C5
:1047E0009421BE46C459C3F30B432B4404F47044D4
:1047F0001F04019702EBCB1240F80E4001EBCB13E4
:10480000DAF800709C214FF0AC0C01EBCB1440F2B5
:10481000077102910CEBCB11D9F800C0982500204C
:10482000CDF800C0A02605EBCB15DCF80CC006EBDC
:10483000CB16CCF30B4C0CF1010C07EB0C08DDF89C
:1048400000C0019F48EA07084CF80E80D9F80070B4
:10485000BAF80CC0B846FF68C7F30A0767444FEAC6
:10486000074E58F8027007F4704C48F802C0D9F8A7
:1048700000C0DAF80870DCF80C80C8F30A0808F108
:104880000108B84448EA0E084CF80280D9F8002024
:10489000D75827F00707D750D9F80070DAF810205A
:1048A000FA509AF831209AF818304FEA022C9AF808
:1048B0003220120442EA0362D9F800301F5918511D
:1048C0009AF8303043EA0C031343D9F8002013510F
:1048D000D9F80020535923F0FF035351D9F8002091
:1048E000DAF814305351D9F800209359029CA343AD
:1048F0009351D9F80030DAE9072422439A51D9F8C4
:10490000002053585050D9F80020DAF824005050B5
:10491000DAF81000C8B301283AD004283AD00228A7
:1049200038D0032836D0072834D00120D9F80030F9
:10493000B02505EBCB11B42284245D5802EBCB12D9
:1049400005F0E0255D50DAE9003504EBCB14EB1AF5
:10495000BAF8285043434543D9F80000DB1C43EA2A
:1049600005434350D9F8000081586FF30A01815084
:10497000D9F80000DAF82C108150D9F8000001595C
:1049800041F001010151BDE8FE8FFFE70420CDE7B2
:104990000320CBE70220C9E7090700284FEA11618D
:1049A00006DA00F00F0000F1E02080F8141D7047D7
:1049B00000F1E02080F80014704700004FF4A07070
:1049C00010B572B680F31188BFF34F8FBFF36F8FAE
:1049D00062B610F0AFF818B103494FF0805008608C
:1049E000002080F3118810BD04ED00E070B594B094
:1049F000012300221C061E0205250695CDE90E2482
:104A0000CDE90C620B921024CDE9002311929D0593
:104A10001292139205950294CDE903320B466A4631
:104A200006A9FEF7DBF9002800D0012014B070BD04
:104A30002DE9F0434B6A4FF040652BB1AA4203D0F9
:104A400004688B6A5B1E23618B69002B68D00C6A3B
:104A5000B4B303688C68DC61CC69FCB1D1E90B3874
:104A6000D1F824C04E6B8F8A43EA080346EA0C064D
:104A700033430E6A43EA8743D1E9037C43EA0C03DC
:104A800033438E693B430F682343046833433B43FE
:104A900065E0006849688161BDE8F083D1E90B36C3
:104AA0004F6A4C6B8D8A33433C430E6923430C6A37
:104AB00043EA85438D693343096823432B4362E00E
:104AC000FFE7CC69B4F1000918D0D1E90B484F6A6F
:104AD0004E6BB1F814C044EA08043E430F683443F7
:104AE000CE6844EA8C44344344EA09041C43036816
:104AF0003C431443AA425C61CBD1CDE7D1E90B46DC
:104B00004F6A4D6BB1F814C034433D4300682C43E9
:104B1000096844EA8C441C430C4314434461BBE7DA
:104B20000B6AABB303688C68DC61CC69E4B1D1E992
:104B30000B38D1F824C04E6B8F8A43EA080346EA4B
:104B40000C0633430E6A43EA8743D1E9037C43EA08
:104B50000C0333438E693B432343046833431343BD
:104B6000AA42636195D197E7D1E90B364F6A4C6B46
:104B70008D8A33433C430E6923430C6A43EA8543E1
:104B800089693343234300680B431343436183E73D
:104B9000FFE7CC6984B1D1E90B384F6A4E6BB1F8AD
:104BA00014C043EA08033E433343CE6843EA8C43D0
:104BB000334323430468D2E74C6A002C9DD0D1E9EB
:104BC0000B368F8A4D6B0168334325432B4343EAF1
:104BD0008740104348615FE730B58FB0054600213C
:104BE0004FF48074852300932004069401220591DC
:104BF000CDE90A21CDE9081041F288340791224617
:104C000028460C910D916946FEF73EF930BB0EA97E
:104C100022462846FEF740FA00BB284600F06EF810
:104C2000E0B9F0208121009190FAA0F29DF83800BF
:104C30000A21B2FA82F220F0F000914008432246A5
:104C400069468DF838002846FEF71EF930B90EA9DE
:104C500022462846FEF782FA002800D001200FB035
:104C600030BD30B58FB00546002141F288344FF495
:104C7000807266200090CDE90621089122462846E0
:104C8000099105910B910C910D916946FEF7FCF885
:104C900068B999202246694600902846FEF7F4F844
:104CA00028B921462846FFF7A1FE002800D00120A0
:104CB0000FB030BD2DE9F041984616460F46044628
:104CC000069D12E0681C10D02DB1FDF78FFCA0EB03
:104CD0000800A84209D9042084F83900E06B40F0AC
:104CE0000100E0630120BDE8F08120688068384061
:104CF00000D00120B042E5D10020F4E7F0B595B036
:104D00000646002441F288354FF480712A46062079
:104D10000690CDE90C140E9406A930460F940B941E
:104D2000119412941394FEF7AFF8B8B902204FF023
:104D3000807CCDF83CC043050090102201210391F6
:104D4000CDE9044305270697CDE9010206A92B46C4
:104D50006A463046FEF742F8002800D0012015B020
:104D6000F0BD000010B5FDF72DFE044800780028C6
:104D700003D0BDE81040FFF721BE10BD04000020A5
:104D800070B5022492B0600501251921CDE90640D5
:104D90000DF1200C68462E040A0108230B938CE8C1
:104DA0001600CDE90056FEF7B5FE00B1FEE7FDF7AF
:104DB000A1FF00B1FEE70EAD00214FF4A0524FF469
:104DC000805385E80E000F20CDE90C0406210CA8C5
:104DD000FEF77CFD002800D0FEE712B070BD000099
:104DE000104A30B51048146800210F4B44F4700489
:104DF0001460083305680D4A0D4C45F00105056047
:104E000019600368051D1340074A03600C322C60CB
:104E10000568E305034C25F480250560803C11609E
:104E2000236030BD88ED00E000380240FFFFF6FE51
:104E300010300024F0B5254B4FF0804E244D026811
:104E40009842244E244F254C09D0704507D0A842E3
:104E500005D0B04203D0B84201D0A04205D1D1F86C
:104E600004C022F070024CEA020298421BD0704546
:104E700019D0A84217D0B04215D0B84213D0A042E2
:104E800011D0174DA8420ED0164DA8420BD0164D8A
:104E9000A84208D0154DA84205D0154DA84202D011
:104EA000144DA84203D1CD6822F440722A43026017
:104EB0008A689842C2620A68826201D0A04201D127
:104EC0000969016301214161F0BD0000000001405A
:104ED0000004004000080040000C004000040140B5
:104EE00000400140004401400048014000180040DB
:104EF000001C00400020004010B5046A01238A40D5
:104F00008B409C430462016A1143016210BD42EA76
:104F1000032283680A4323F47F410A438260704777
:104F2000826822F070020A4342F0070181607047F4
:104F3000F0B5026A164B154F22F001029842026248
:104F4000066A4268846926F002068B680D6804EAE6
:104F5000070424F0030443EA060345EA040502D0EB
:104F60000C4CA0420BD1CC6822F44077D1E9056209
:104F700023F008031C433E43324324F00403426001
:104F80008561496841630362F0BD00008FFFFEFF49
:104F90000000014000040140F0B5026A174B164DB5
:104FA00022F0100298420262046A4268836924F087
:104FB00020048F680E6803EA050323F4407544EA71
:104FC000071345EA062402D00D4DA8420ED1CD6844
:104FD00023F08003D1E9056722F4406243EA051318
:104FE00042EA860223F0400342EA8702426084617B
:104FF000496881630362F0BDFF8FFFFE000001403E
:1050000000040140F0B5026A174B164F22F480727B
:1050100098420262056A4368C26925F400758E6889
:1050200002EA07020C6822F0030745EA062244EA76
:10503000070402D00D4DA8420ED1CD6822F40062C3
:10504000D1E9056723F4405342EA052243EA0613F7
:1050500022F4806243EA07134360C4614968C16374
:105060000262F0BD8FFFFEFF00000140000401401E
:10507000F0B5026A124B114F22F48052984202623C
:10508000046A4268C36924F400548E680D6803EA18
:10509000070323F4407344EA063443EA052302D0AD
:1050A000084DA84204D14D6922F4804242EA85129B
:1050B0004260C361496801640462F0BDFF8FFFFE76
:1050C0000000014000040140F0B5026ADFF844C06E
:1050D00022F480320262056A4268446D25F400358C
:1050E0000E8960450C4F0B6804EA070445EA064543
:1050F00043EA040302D0094CA04204D14C6922F4D3
:10510000803242EA04224260436549688165056253
:10511000F0BD0000000001408FFFFEFF00040140D1
:10512000F0B5026ADFF844C022F480120262046A19
:105130004268436D24F400140E8960450C4F0D68DD
:1051400003EA070344EA065443EA052302D0094D63
:10515000A84204D14D6922F4802242EA85224260AD
:1051600043654968C1650462F0BD0000000001406C
:10517000FF8FFFFE0004014010B5036A046A23F0AC
:105180000A0324F00104046284690B4324F0F00153
:1051900041EA02118161036210BD10B5036A23F078
:1051A000100303628369046A23F4704324F0A004AB
:1051B00043EA0232826144EA0111016210BDFDF747
:1051C0006AB800000148FFF7EBB90000082500208D
:1051D0003EB50124002202AB8DF80820CDE9003451
:1051E0000A46234601460348FFF794FA9DF8080053
:1051F0003EBD00000825002007B5012382B004AAA7
:10520000CDE900230A4601460248FFF798FA05B0A7
:1052100000BD00000825002090F82410C90706D022
:105220000168836A4A6822F400321A434A6090F89F
:105230002410890706D50168C36A4A6822F48032BF
:105240001A434A6090F82410490706D50168036B99
:105250004A6822F480221A434A6090F82410090711
:1052600006D50168436B4A6822F400421A434A603B
:1052700090F82410C90606D50168836B8A6822F469
:1052800080521A438A6090F82410890606D5016876
:10529000C36B8A6822F400521A438A6090F8241083
:1052A000490611D50168036C4A6822F480121A433A
:1052B0004A60016CB1F5801F06D10168436C4A68F1
:1052C00022F4C0021A434A6090F82410090606D559
:1052D0000168826C486820F40020104348607047E1
:1052E000F8B500260446C666FDF780F90546206835
:1052F0006FF07E470068000708D500222B464FF468
:1053000000112046009700F045F960B92068006858
:1053100040070AD500222B464FF480012046009713
:1053200000F038F908B10320F8BD202084F86900A6
:1053300084F8686084F86A000020F8BD2DE9F04721
:1053400004468068874B884F2668D4E90415E269D3
:105350000843D6F800C01021154300222843154603
:105360000CEA030C814B4CEA000CC6F800C04FF469
:1053700000492068D4F80CC0466826F4405646EA36
:105380000C0646602668D4F82080A069D6F808C0CC
:1053900040EA08002CF4306C4CEA000CC6F808C057
:1053A0002068B8420AD11B6813F0030352D0012BC6
:1053B0007AD0022B76D0032B79D177E06C4EB042B5
:1053C0000AD11B6813F00C036AD0042B6CD0082B95
:1053D00068D00C2B6BD169E0664EB0420AD11B68D5
:1053E00013F030035CD0102B5ED0202B5AD0302B22
:1053F0005DD15BE0604EB0420AD11B6813F0C00380
:105400004ED0402B50D0802B4CD0C02B4FD14DE0F4
:105410005A4EB0420DD11B6813F4407340D0B3F51F
:10542000807F41D0B3F5007F3CD0B3F5407F3ED1C3
:105430003CE0534EB0420FD11B6813F4406309D0D7
:10544000B3F5806F30D0B3F5006F2BD0B3F5406F5C
:105450002DD12BE001212AE04A4EB0420DD11B682C
:1054600013F440531CD0B3F5805F1DD0B3F5005F3B
:1054700018D0B3F5405F1AD118E0434EB04216D1B0
:105480001B6813F440430BD0B3F5804F0CD04B4551
:1054900008D0B3F5404F0AD108E005E002E0FFE78D
:1054A000002104E0022102E0042100E00821E66975
:1054B0004E452AD109291FD2DFE801F00508141E44
:1054C000171E1E1E1A00FEF7B3FA01E0FEF7C8FA17
:1054D0000146D4F80400490001EB5001B1FBF0F0A3
:1054E00082B20AE029496068F6E7FEF7D1FAEFE7F1
:1054F00060684FF48031EFE70125216822F00F004A
:10550000C2F342021043C86028E0092925D2DFE82F
:1055100001F005080B24102424241C00FEF788FA4F
:1055200009E0FEF79DFA06E06168194A02EB5102B4
:105530000EE0FEF7ADFA0146D4E9002001EB500180
:10554000B1FBF0F080B2D06008E0616809EB510275
:10555000B2FBF1F189B2C16000E001252846BDE847
:10556000F0870000F369FFEF00100140903802401F
:105570000044004000480040004C00400050004003
:105580000014014000780040007C00400048E80121
:105590000024F4002DE9F041984617460E460446D3
:1055A000069D1DE0681C1BD02DB1FDF71FF8A0EB78
:1055B0000800A84214D32168202000220B6823F49D
:1055C000D0730B6021688B6823F001038B6084F833
:1055D000690084F86A00032084F86820BDE8F0813F
:1055E0002068C06936EA000004D00020B842D9D053
:1055F0000020F3E70120F9E77FB512480024104AA4
:105600000125290702604FF0C06244608460046194
:1056100084610462C561C4608262C0E90B154561A2
:10562000FCF76BF800B1FEE706486946CDE9004596
:105630000294FBF787FF002800D0FEE77FBD000043
:1056400000200140FC5700207FB512480024104A7A
:1056500001250260D10444604FF0A06284600461BF
:1056600084610462C561C4608262C0E90B15456152
:10567000FCF743F800B1FEE708206946CDE90005D4
:1056800004480294FBF75EFF002800D0FEE77FBDD0
:1056900000220140445800201F4830B587B00168FF
:1056A00041F008010160016801F0080105910168FD
:1056B00041F001010160016801F0010105910168FB
:1056C00041F480710160016801F480710591016805
:1056D00041F080010160016801F0800105910168DD
:1056E00041F02001016000684FF480640B4D0022FE
:1056F00000F02000214605902846FCF771FF0021AC
:1057000000940120CDE90101284603916946FCF788
:1057100077FE07B030BD0000303802400000024084
:10572000184810B58CB0016841F0020101600068B2
:1057300064210024144B00F002000A901348042254
:10574000C0E902410461C0E90032FEF7EAFC00B1A1
:10575000FEE7202007900D4807A90994FEF7D8FB23
:1057600000B1FEE730200D218DE8130007480C2220
:1057700069460494FEF79CFC002800D0FEE70CB0BC
:1057800010BD000040380240000400408C5800204A
:105790001C4810B590B0016841F004010160006838
:1057A00064210024184B00F004000E9017480422D6
:1057B000C0E902410461C0E90032FEF7B2FC00B169
:1057C000FEE74FF480500A9010480AA9FEF7F2FB5A
:1057D00000B1FEE7202007900C4807A90994FEF7C6
:1057E00097FB00B1FEE7302032218DE81300074817
:1057F0000C2269460494FEF75BFC002800D0FEE70B
:1058000010B010BD4038024000080040C8580020C9
:105810001FB50F48016841F01001016000680024C5
:105820000C4A4FF47A7100F0100003900A48C0E966
:105830000024C0E9031484604461FEF795FB202036
:105840000090054869460294FEF762FB1FBD000008
:10585000403802400010004004590020410900F087
:105860001F028800012100F1E0209140C0F80011E2
:105870007047410900F01F028800012100F1E0207B
:105880009140C0F800117047410900F01F028800E4
:10589000012100F1E0209140C0F8801170474109DA
:1058A00000F01F028800012100F1E0209140C0F8C3
:1058B0008011704710B570B14FF4FA640A490B4873
:1058C0002246FBF7AFFF0A492246BDE8104001F629
:1058D000FC70FBF7A7BF0548FCF722F80348BDE8BA
:1058E00010404830FCF71CB8A8380020FC570020B6
:1058F00048480020090700284FEA116106DA00F045
:105900000F0000F1E02080F8141D704700F1E02046
:1059100080F800147047000002480188024800EB3C
:1059200041007047CA000020A83800200248418882
:10593000024800EB41007047CA00002048480020A0
:105940000E292AD2DFE801F0090B0D0F11131619E9
:105950001C1F2225280706221FE00C221DE018220A
:105960001BE0302219E0782217E0F02215E04FF416
:10597000F07212E04FF496620FE04FF416620CE002
:105980004FF4965209E042F6E06206E045F6C05256
:1059900003E04BF6803200E0074A50B1074800BFF1
:1059A000036802EBD2714910DA62C26000680164D8
:1059B000704702483C38F3E7C0D40100C8580020C3
:1059C00005490028086803D06422C262CA60704793
:1059D0004FF47A72F9E700000459002038B500212D
:1059E00004460B48FCF7D6F8012C4FF0000009D014
:1059F000022C06D1074A6423009000210448FCF7DA
:105A000049F838BD034A64230090C83AF5E700001E
:105A1000E8570020AC5901080E49002070B5086015
:105A2000BFF34F8F081F43F6FF7300680A4DC0F3A2
:105A30004E31C0F3C90203EA4114104644EA8076AD
:105A40002E60401EFAD2491EF5D2BFF34F8FBFF32E
:105A50006F8F70BD84ED00E074EF00E0144800B576
:105A60008BB00078C00720D111480DF0C1FDE0B126
:105A7000002007900F49022308900990029004200B
:105A80000D4A06910121CDE9003003910C23CDE9A7
:105A900004120A491E220A4805F026FD094A0A494D
:105AA000FAF764FC0248AFF300800BB0044800BD75
:105AB000E800002014860108845A0108D0800108FB
:105AC000945A0020000000082DB50008144800B5C5
:105AD0008BB00078C00720D111480DF089FDE0B1EE
